{
  "contractName": "ActorFactory",
  "abi": [
    {
      "constant": true,
      "inputs": [],
      "name": "VALIDATOR",
      "outputs": [
        {
          "name": "",
          "type": "bytes32"
        }
      ],
      "payable": false,
      "stateMutability": "view",
      "type": "function"
    },
    {
      "constant": false,
      "inputs": [],
      "name": "unpause",
      "outputs": [],
      "payable": false,
      "stateMutability": "nonpayable",
      "type": "function"
    },
    {
      "constant": true,
      "inputs": [
        {
          "name": "account",
          "type": "address"
        }
      ],
      "name": "isPauser",
      "outputs": [
        {
          "name": "",
          "type": "bool"
        }
      ],
      "payable": false,
      "stateMutability": "view",
      "type": "function"
    },
    {
      "constant": true,
      "inputs": [],
      "name": "paused",
      "outputs": [
        {
          "name": "",
          "type": "bool"
        }
      ],
      "payable": false,
      "stateMutability": "view",
      "type": "function"
    },
    {
      "constant": true,
      "inputs": [],
      "name": "FARMER",
      "outputs": [
        {
          "name": "",
          "type": "bytes32"
        }
      ],
      "payable": false,
      "stateMutability": "view",
      "type": "function"
    },
    {
      "constant": false,
      "inputs": [],
      "name": "renouncePauser",
      "outputs": [],
      "payable": false,
      "stateMutability": "nonpayable",
      "type": "function"
    },
    {
      "constant": false,
      "inputs": [],
      "name": "renounceOwnership",
      "outputs": [],
      "payable": false,
      "stateMutability": "nonpayable",
      "type": "function"
    },
    {
      "constant": true,
      "inputs": [],
      "name": "TASTER",
      "outputs": [
        {
          "name": "",
          "type": "bytes32"
        }
      ],
      "payable": false,
      "stateMutability": "view",
      "type": "function"
    },
    {
      "constant": false,
      "inputs": [
        {
          "name": "account",
          "type": "address"
        }
      ],
      "name": "addPauser",
      "outputs": [],
      "payable": false,
      "stateMutability": "nonpayable",
      "type": "function"
    },
    {
      "constant": false,
      "inputs": [],
      "name": "pause",
      "outputs": [],
      "payable": false,
      "stateMutability": "nonpayable",
      "type": "function"
    },
    {
      "constant": true,
      "inputs": [],
      "name": "owner",
      "outputs": [
        {
          "name": "",
          "type": "address"
        }
      ],
      "payable": false,
      "stateMutability": "view",
      "type": "function"
    },
    {
      "constant": true,
      "inputs": [],
      "name": "isOwner",
      "outputs": [
        {
          "name": "",
          "type": "bool"
        }
      ],
      "payable": false,
      "stateMutability": "view",
      "type": "function"
    },
    {
      "constant": true,
      "inputs": [],
      "name": "COOPERATIVE",
      "outputs": [
        {
          "name": "",
          "type": "bytes32"
        }
      ],
      "payable": false,
      "stateMutability": "view",
      "type": "function"
    },
    {
      "constant": true,
      "inputs": [],
      "name": "TECHNICIAN",
      "outputs": [
        {
          "name": "",
          "type": "bytes32"
        }
      ],
      "payable": false,
      "stateMutability": "view",
      "type": "function"
    },
    {
      "constant": true,
      "inputs": [],
      "name": "CERTIFIER",
      "outputs": [
        {
          "name": "",
          "type": "bytes32"
        }
      ],
      "payable": false,
      "stateMutability": "view",
      "type": "function"
    },
    {
      "constant": true,
      "inputs": [],
      "name": "BENEFIT",
      "outputs": [
        {
          "name": "",
          "type": "bytes32"
        }
      ],
      "payable": false,
      "stateMutability": "view",
      "type": "function"
    },
    {
      "constant": true,
      "inputs": [],
      "name": "ROASTER",
      "outputs": [
        {
          "name": "",
          "type": "bytes32"
        }
      ],
      "payable": false,
      "stateMutability": "view",
      "type": "function"
    },
    {
      "constant": false,
      "inputs": [
        {
          "name": "newOwner",
          "type": "address"
        }
      ],
      "name": "transferOwnership",
      "outputs": [],
      "payable": false,
      "stateMutability": "nonpayable",
      "type": "function"
    },
    {
      "payable": true,
      "stateMutability": "payable",
      "type": "fallback"
    },
    {
      "anonymous": false,
      "inputs": [
        {
          "indexed": false,
          "name": "_actorAddress",
          "type": "address"
        },
        {
          "indexed": false,
          "name": "_role",
          "type": "bytes32"
        }
      ],
      "name": "LogAddActor",
      "type": "event"
    },
    {
      "anonymous": false,
      "inputs": [
        {
          "indexed": false,
          "name": "_cooperativeAddress",
          "type": "address"
        },
        {
          "indexed": false,
          "name": "_actorAddress",
          "type": "address"
        },
        {
          "indexed": false,
          "name": "_role",
          "type": "bytes32"
        }
      ],
      "name": "LogCooperativeAddActor",
      "type": "event"
    },
    {
      "anonymous": false,
      "inputs": [
        {
          "indexed": false,
          "name": "_actorAddress",
          "type": "address"
        }
      ],
      "name": "LogDestroyActor",
      "type": "event"
    },
    {
      "anonymous": false,
      "inputs": [
        {
          "indexed": false,
          "name": "_cooperativeAddress",
          "type": "address"
        },
        {
          "indexed": false,
          "name": "_actorAddress",
          "type": "address"
        }
      ],
      "name": "LogCooperativeDestroyActor",
      "type": "event"
    },
    {
      "anonymous": false,
      "inputs": [
        {
          "indexed": true,
          "name": "_owner",
          "type": "address"
        },
        {
          "indexed": true,
          "name": "_allowed",
          "type": "address"
        },
        {
          "indexed": false,
          "name": "_value",
          "type": "bool"
        }
      ],
      "name": "LogApproval",
      "type": "event"
    },
    {
      "anonymous": false,
      "inputs": [
        {
          "indexed": true,
          "name": "_owner",
          "type": "address"
        },
        {
          "indexed": true,
          "name": "_allowed",
          "type": "address"
        },
        {
          "indexed": false,
          "name": "_value",
          "type": "bool"
        },
        {
          "indexed": false,
          "name": "_cooperativeAddress",
          "type": "address"
        }
      ],
      "name": "LogCooperativeApproval",
      "type": "event"
    },
    {
      "anonymous": false,
      "inputs": [
        {
          "indexed": false,
          "name": "account",
          "type": "address"
        }
      ],
      "name": "Paused",
      "type": "event"
    },
    {
      "anonymous": false,
      "inputs": [
        {
          "indexed": false,
          "name": "account",
          "type": "address"
        }
      ],
      "name": "Unpaused",
      "type": "event"
    },
    {
      "anonymous": false,
      "inputs": [
        {
          "indexed": true,
          "name": "account",
          "type": "address"
        }
      ],
      "name": "PauserAdded",
      "type": "event"
    },
    {
      "anonymous": false,
      "inputs": [
        {
          "indexed": true,
          "name": "account",
          "type": "address"
        }
      ],
      "name": "PauserRemoved",
      "type": "event"
    },
    {
      "anonymous": false,
      "inputs": [
        {
          "indexed": true,
          "name": "previousOwner",
          "type": "address"
        },
        {
          "indexed": true,
          "name": "newOwner",
          "type": "address"
        }
      ],
      "name": "OwnershipTransferred",
      "type": "event"
    },
    {
      "constant": true,
      "inputs": [
        {
          "name": "_owner",
          "type": "address"
        }
      ],
      "name": "getAccountType",
      "outputs": [
        {
          "name": "",
          "type": "bytes32"
        }
      ],
      "payable": false,
      "stateMutability": "view",
      "type": "function"
    },
    {
      "constant": true,
      "inputs": [],
      "name": "getSenderRole",
      "outputs": [
        {
          "name": "",
          "type": "bytes32"
        }
      ],
      "payable": false,
      "stateMutability": "view",
      "type": "function"
    },
    {
      "constant": true,
      "inputs": [
        {
          "name": "_allower",
          "type": "address"
        },
        {
          "name": "_allowed",
          "type": "address"
        }
      ],
      "name": "isAllowed",
      "outputs": [
        {
          "name": "",
          "type": "bool"
        }
      ],
      "payable": false,
      "stateMutability": "view",
      "type": "function"
    },
    {
      "constant": true,
      "inputs": [
        {
          "name": "_actorAddress",
          "type": "address"
        }
      ],
      "name": "actorExists",
      "outputs": [
        {
          "name": "",
          "type": "bool"
        }
      ],
      "payable": false,
      "stateMutability": "view",
      "type": "function"
    },
    {
      "constant": true,
      "inputs": [
        {
          "name": "_accountAddress",
          "type": "address"
        }
      ],
      "name": "isFarmer",
      "outputs": [
        {
          "name": "",
          "type": "bool"
        }
      ],
      "payable": false,
      "stateMutability": "view",
      "type": "function"
    },
    {
      "constant": true,
      "inputs": [
        {
          "name": "_accountAddress",
          "type": "address"
        }
      ],
      "name": "isCooperative",
      "outputs": [
        {
          "name": "",
          "type": "bool"
        }
      ],
      "payable": false,
      "stateMutability": "view",
      "type": "function"
    },
    {
      "constant": true,
      "inputs": [
        {
          "name": "_accountAddress",
          "type": "address"
        }
      ],
      "name": "isCertifier",
      "outputs": [
        {
          "name": "",
          "type": "bool"
        }
      ],
      "payable": false,
      "stateMutability": "view",
      "type": "function"
    },
    {
      "constant": true,
      "inputs": [
        {
          "name": "_accountAddress",
          "type": "address"
        }
      ],
      "name": "isTechnician",
      "outputs": [
        {
          "name": "",
          "type": "bool"
        }
      ],
      "payable": false,
      "stateMutability": "view",
      "type": "function"
    },
    {
      "constant": true,
      "inputs": [
        {
          "name": "_accountAddress",
          "type": "address"
        }
      ],
      "name": "isTaster",
      "outputs": [
        {
          "name": "",
          "type": "bool"
        }
      ],
      "payable": false,
      "stateMutability": "view",
      "type": "function"
    },
    {
      "constant": true,
      "inputs": [
        {
          "name": "_accountAddress",
          "type": "address"
        }
      ],
      "name": "isValidator",
      "outputs": [
        {
          "name": "",
          "type": "bool"
        }
      ],
      "payable": false,
      "stateMutability": "view",
      "type": "function"
    },
    {
      "constant": true,
      "inputs": [
        {
          "name": "_accountAddress",
          "type": "address"
        }
      ],
      "name": "isBenefit",
      "outputs": [
        {
          "name": "",
          "type": "bool"
        }
      ],
      "payable": false,
      "stateMutability": "view",
      "type": "function"
    },
    {
      "constant": true,
      "inputs": [
        {
          "name": "_accountAddress",
          "type": "address"
        }
      ],
      "name": "isRoaster",
      "outputs": [
        {
          "name": "",
          "type": "bool"
        }
      ],
      "payable": false,
      "stateMutability": "view",
      "type": "function"
    },
    {
      "constant": false,
      "inputs": [
        {
          "name": "_role",
          "type": "bytes32"
        }
      ],
      "name": "addActor",
      "outputs": [],
      "payable": false,
      "stateMutability": "nonpayable",
      "type": "function"
    },
    {
      "constant": false,
      "inputs": [
        {
          "name": "_role",
          "type": "bytes32"
        },
        {
          "name": "_actorAddress",
          "type": "address"
        }
      ],
      "name": "cooperativeAddActor",
      "outputs": [],
      "payable": false,
      "stateMutability": "nonpayable",
      "type": "function"
    },
    {
      "constant": false,
      "inputs": [
        {
          "name": "_allowed",
          "type": "address"
        },
        {
          "name": "_value",
          "type": "bool"
        }
      ],
      "name": "approve",
      "outputs": [
        {
          "name": "",
          "type": "bool"
        }
      ],
      "payable": false,
      "stateMutability": "nonpayable",
      "type": "function"
    },
    {
      "constant": false,
      "inputs": [
        {
          "name": "_allower",
          "type": "address"
        },
        {
          "name": "_allowed",
          "type": "address"
        },
        {
          "name": "_value",
          "type": "bool"
        }
      ],
      "name": "cooperativeApprove",
      "outputs": [
        {
          "name": "",
          "type": "bool"
        }
      ],
      "payable": false,
      "stateMutability": "nonpayable",
      "type": "function"
    },
    {
      "constant": false,
      "inputs": [],
      "name": "destroyActor",
      "outputs": [],
      "payable": false,
      "stateMutability": "nonpayable",
      "type": "function"
    },
    {
      "constant": false,
      "inputs": [
        {
          "name": "_actorAddress",
          "type": "address"
        }
      ],
      "name": "cooperativeDestroyActor",
      "outputs": [],
      "payable": false,
      "stateMutability": "nonpayable",
      "type": "function"
    },
    {
      "constant": false,
      "inputs": [],
      "name": "destroy",
      "outputs": [],
      "payable": false,
      "stateMutability": "nonpayable",
      "type": "function"
    }
  ],
  "bytecode": "0x6080604052336000806101000a81548173ffffffffffffffffffffffffffffffffffffffff021916908373ffffffffffffffffffffffffffffffffffffffff1602179055506000809054906101000a900473ffffffffffffffffffffffffffffffffffffffff1673ffffffffffffffffffffffffffffffffffffffff16600073ffffffffffffffffffffffffffffffffffffffff167f8be0079c531659141344cd1fd0a4f28419497f9722a3daafe3b4186f6b6457e060405160405180910390a3620000d133620000f260201b60201c565b6000600260006101000a81548160ff02191690831515021790555062000317565b6200010d8160016200015360201b62002ead1790919060201c565b8073ffffffffffffffffffffffffffffffffffffffff167f6719d08c1888103bea251a4ed56406bd0c3e69723c8a1686e017e7bbe159b6f860405160405180910390a250565b6200016582826200023760201b60201c565b15620001d9576040517f08c379a000000000000000000000000000000000000000000000000000000000815260040180806020018281038252601f8152602001807f526f6c65733a206163636f756e7420616c72656164792068617320726f6c650081525060200191505060405180910390fd5b60018260000160008373ffffffffffffffffffffffffffffffffffffffff1673ffffffffffffffffffffffffffffffffffffffff16815260200190815260200160002060006101000a81548160ff0219169083151502179055505050565b60008073ffffffffffffffffffffffffffffffffffffffff168273ffffffffffffffffffffffffffffffffffffffff161415620002c0576040517f08c379a00000000000000000000000000000000000000000000000000000000081526004018080602001828103825260228152602001806200337d6022913960400191505060405180910390fd5b8260000160008373ffffffffffffffffffffffffffffffffffffffff1673ffffffffffffffffffffffffffffffffffffffff16815260200190815260200160002060009054906101000a900460ff16905092915050565b61305680620003276000396000f3fe60806040526004361061021a5760003560e01c80638456cb5911610123578063b7477f94116100ab578063ea535ab11161006f578063ea535ab114610ad2578063f2fde38b14610b2d578063f6605b0714610b7e578063f9338f0314610be7578063facd743b14610c7c5761021a565b8063b7477f94146109bd578063b86bc74f146109e8578063b942906914610a13578063d6b7716f14610a7c578063daf7d45b14610aa75761021a565b80638f32d59b116100f25780638f32d59b1461080c578063a16543791461083b578063a3fac137146108c4578063ae2031461461092d578063b262a354146109925761021a565b80638456cb591461074c5780638793ca55146107635780638920641d1461077a5780638da5cb5b146107b55761021a565b8063617ccf0b116101a6578063715018a611610175578063715018a6146106395780637882065a1461065057806382dc1ec41461067b57806382f34e3a146106cc57806383197ef0146107355761021a565b8063617ccf0b1461053d5780636a4cd338146105685780636db5a1c3146105d15780636ef8d66d146106225761021a565b80633a88162e116101ed5780633a88162e146103ee5780633d140d21146104195780633f4ba83a1461048e57806346fbf68e146104a55780635c975abb1461050e5761021a565b80630f5b76fa1461028857806316ce5b85146102f15780631c2353e11461035a578063393df8cb146103c3575b6040517f08c379a000000000000000000000000000000000000000000000000000000000815260040180806020018281038252601c8152602001807f436f6e74726163742063616e277420726563656976652045746865720000000081525060200191505060405180910390fd5b34801561029457600080fd5b506102d7600480360360208110156102ab57600080fd5b81019080803573ffffffffffffffffffffffffffffffffffffffff169060200190929190505050610ce5565b604051808215151515815260200191505060405180910390f35b3480156102fd57600080fd5b506103406004803603602081101561031457600080fd5b81019080803573ffffffffffffffffffffffffffffffffffffffff169060200190929190505050610d13565b604051808215151515815260200191505060405180910390f35b34801561036657600080fd5b506103a96004803603602081101561037d57600080fd5b81019080803573ffffffffffffffffffffffffffffffffffffffff169060200190929190505050610d41565b604051808215151515815260200191505060405180910390f35b3480156103cf57600080fd5b506103d8610d6f565b6040518082815260200191505060405180910390f35b3480156103fa57600080fd5b50610403610d93565b6040518082815260200191505060405180910390f35b34801561042557600080fd5b506104746004803603604081101561043c57600080fd5b81019080803573ffffffffffffffffffffffffffffffffffffffff169060200190929190803515159060200190929190505050610da3565b604051808215151515815260200191505060405180910390f35b34801561049a57600080fd5b506104a3610ea6565b005b3480156104b157600080fd5b506104f4600480360360208110156104c857600080fd5b81019080803573ffffffffffffffffffffffffffffffffffffffff169060200190929190505050611006565b604051808215151515815260200191505060405180910390f35b34801561051a57600080fd5b50610523611023565b604051808215151515815260200191505060405180910390f35b34801561054957600080fd5b5061055261103a565b6040518082815260200191505060405180910390f35b34801561057457600080fd5b506105b76004803603602081101561058b57600080fd5b81019080803573ffffffffffffffffffffffffffffffffffffffff16906020019092919050505061105e565b604051808215151515815260200191505060405180910390f35b3480156105dd57600080fd5b50610620600480360360208110156105f457600080fd5b81019080803573ffffffffffffffffffffffffffffffffffffffff169060200190929190505050611082565b005b34801561062e57600080fd5b5061063761123d565b005b34801561064557600080fd5b5061064e611248565b005b34801561065c57600080fd5b50610665611381565b6040518082815260200191505060405180910390f35b34801561068757600080fd5b506106ca6004803603602081101561069e57600080fd5b81019080803573ffffffffffffffffffffffffffffffffffffffff1690602001909291905050506113a5565b005b3480156106d857600080fd5b5061071b600480360360208110156106ef57600080fd5b81019080803573ffffffffffffffffffffffffffffffffffffffff16906020019092919050505061140f565b604051808215151515815260200191505060405180910390f35b34801561074157600080fd5b5061074a61143d565b005b34801561075857600080fd5b506107616114dc565b005b34801561076f57600080fd5b5061077861163d565b005b34801561078657600080fd5b506107b36004803603602081101561079d57600080fd5b810190808035906020019092919050505061173d565b005b3480156107c157600080fd5b506107ca611838565b604051808273ffffffffffffffffffffffffffffffffffffffff1673ffffffffffffffffffffffffffffffffffffffff16815260200191505060405180910390f35b34801561081857600080fd5b50610821611861565b604051808215151515815260200191505060405180910390f35b34801561084757600080fd5b506108aa6004803603604081101561085e57600080fd5b81019080803573ffffffffffffffffffffffffffffffffffffffff169060200190929190803573ffffffffffffffffffffffffffffffffffffffff1690602001909291905050506118b8565b604051808215151515815260200191505060405180910390f35b3480156108d057600080fd5b50610913600480360360208110156108e757600080fd5b81019080803573ffffffffffffffffffffffffffffffffffffffff16906020019092919050505061194c565b604051808215151515815260200191505060405180910390f35b34801561093957600080fd5b5061097c6004803603602081101561095057600080fd5b81019080803573ffffffffffffffffffffffffffffffffffffffff16906020019092919050505061197a565b6040518082815260200191505060405180910390f35b34801561099e57600080fd5b506109a761198c565b6040518082815260200191505060405180910390f35b3480156109c957600080fd5b506109d26119b0565b6040518082815260200191505060405180910390f35b3480156109f457600080fd5b506109fd6119d4565b6040518082815260200191505060405180910390f35b348015610a1f57600080fd5b50610a6260048036036020811015610a3657600080fd5b81019080803573ffffffffffffffffffffffffffffffffffffffff1690602001909291905050506119f8565b604051808215151515815260200191505060405180910390f35b348015610a8857600080fd5b50610a91611a26565b6040518082815260200191505060405180910390f35b348015610ab357600080fd5b50610abc611a4a565b6040518082815260200191505060405180910390f35b348015610ade57600080fd5b50610b2b60048036036040811015610af557600080fd5b8101908080359060200190929190803573ffffffffffffffffffffffffffffffffffffffff169060200190929190505050611a6e565b005b348015610b3957600080fd5b50610b7c60048036036020811015610b5057600080fd5b81019080803573ffffffffffffffffffffffffffffffffffffffff169060200190929190505050611cce565b005b348015610b8a57600080fd5b50610bcd60048036036020811015610ba157600080fd5b81019080803573ffffffffffffffffffffffffffffffffffffffff169060200190929190505050611d54565b604051808215151515815260200191505060405180910390f35b348015610bf357600080fd5b50610c6260048036036060811015610c0a57600080fd5b81019080803573ffffffffffffffffffffffffffffffffffffffff169060200190929190803573ffffffffffffffffffffffffffffffffffffffff169060200190929190803515159060200190929190505050611d82565b604051808215151515815260200191505060405180910390f35b348015610c8857600080fd5b50610ccb60048036036020811015610c9f57600080fd5b81019080803573ffffffffffffffffffffffffffffffffffffffff169060200190929190505050611f40565b604051808215151515815260200191505060405180910390f35b6000610cfb826006611f6e90919063ffffffff16565b15610d095760019050610d0e565b600090505b919050565b6000610d29826009611f6e90919063ffffffff16565b15610d375760019050610d3c565b600090505b919050565b6000610d57826005611f6e90919063ffffffff16565b15610d655760019050610d6a565b600090505b919050565b7f56414c494441544f52000000000000000000000000000000000000000000000081565b6000610d9e3361204c565b905090565b6000600260009054906101000a900460ff1615610e28576040517f08c379a00000000000000000000000000000000000000000000000000000000081526004018080602001828103825260108152602001807f5061757361626c653a207061757365640000000000000000000000000000000081525060200191505060405180910390fd5b610e33338484612260565b8273ffffffffffffffffffffffffffffffffffffffff163373ffffffffffffffffffffffffffffffffffffffff167f6cc438beee050a8338ac87dc4353c517532095b48b678a7e50f680da7e6c789184604051808215151515815260200191505060405180910390a36001905092915050565b610eaf33611006565b610f04576040517f08c379a0000000000000000000000000000000000000000000000000000000008152600401808060200182810382526030815260200180612f896030913960400191505060405180910390fd5b600260009054906101000a900460ff16610f86576040517f08c379a00000000000000000000000000000000000000000000000000000000081526004018080602001828103825260148152602001807f5061757361626c653a206e6f742070617573656400000000000000000000000081525060200191505060405180910390fd5b6000600260006101000a81548160ff0219169083151502179055507f5db9ee0a495bf2e6ff9c91a7834c1ba4fdd244a5e8aa4e537bd38aeae4b073aa33604051808273ffffffffffffffffffffffffffffffffffffffff1673ffffffffffffffffffffffffffffffffffffffff16815260200191505060405180910390a1565b600061101c826001611f6e90919063ffffffff16565b9050919050565b6000600260009054906101000a900460ff16905090565b7f4641524d4552000000000000000000000000000000000000000000000000000081565b60008061106a8361204c565b14611078576001905061107d565b600090505b919050565b600260009054906101000a900460ff1615611105576040517f08c379a00000000000000000000000000000000000000000000000000000000081526004018080602001828103825260108152602001807f5061757361626c653a207061757365640000000000000000000000000000000081525060200191505060405180910390fd5b611119336004611f6e90919063ffffffff16565b61118b576040517f08c379a00000000000000000000000000000000000000000000000000000000081526004018080602001828103825260118152602001807f6e6f74206120636f6f706572617469766500000000000000000000000000000081525060200191505060405180910390fd5b60006111968261204c565b90506111a2828261237a565b7fda6ab05fe414c6541fc772ca1443dd86d3b210a23538e759c386381d6b2cc6d53383604051808373ffffffffffffffffffffffffffffffffffffffff1673ffffffffffffffffffffffffffffffffffffffff1681526020018273ffffffffffffffffffffffffffffffffffffffff1673ffffffffffffffffffffffffffffffffffffffff1681526020019250505060405180910390a15050565b61124633612708565b565b611250611861565b6112c2576040517f08c379a00000000000000000000000000000000000000000000000000000000081526004018080602001828103825260208152602001807f4f776e61626c653a2063616c6c6572206973206e6f7420746865206f776e657281525060200191505060405180910390fd5b600073ffffffffffffffffffffffffffffffffffffffff166000809054906101000a900473ffffffffffffffffffffffffffffffffffffffff1673ffffffffffffffffffffffffffffffffffffffff167f8be0079c531659141344cd1fd0a4f28419497f9722a3daafe3b4186f6b6457e060405160405180910390a360008060006101000a81548173ffffffffffffffffffffffffffffffffffffffff021916908373ffffffffffffffffffffffffffffffffffffffff160217905550565b7f544153544552000000000000000000000000000000000000000000000000000081565b6113ae33611006565b611403576040517f08c379a0000000000000000000000000000000000000000000000000000000008152600401808060200182810382526030815260200180612f896030913960400191505060405180910390fd5b61140c81612762565b50565b6000611425826007611f6e90919063ffffffff16565b156114335760019050611438565b600090505b919050565b611445611861565b6114b7576040517f08c379a00000000000000000000000000000000000000000000000000000000081526004018080602001828103825260208152602001807f4f776e61626c653a2063616c6c6572206973206e6f7420746865206f776e657281525060200191505060405180910390fd5b60006114c1611838565b90508073ffffffffffffffffffffffffffffffffffffffff16ff5b6114e533611006565b61153a576040517f08c379a0000000000000000000000000000000000000000000000000000000008152600401808060200182810382526030815260200180612f896030913960400191505060405180910390fd5b600260009054906101000a900460ff16156115bd576040517f08c379a00000000000000000000000000000000000000000000000000000000081526004018080602001828103825260108152602001807f5061757361626c653a207061757365640000000000000000000000000000000081525060200191505060405180910390fd5b6001600260006101000a81548160ff0219169083151502179055507f62e78cea01bee320cd4e420270b5ea74000d11b0c9f74754ebdbfc544b05a25833604051808273ffffffffffffffffffffffffffffffffffffffff1673ffffffffffffffffffffffffffffffffffffffff16815260200191505060405180910390a1565b600260009054906101000a900460ff16156116c0576040517f08c379a00000000000000000000000000000000000000000000000000000000081526004018080602001828103825260108152602001807f5061757361626c653a207061757365640000000000000000000000000000000081525060200191505060405180910390fd5b60006116cb3361204c565b90506116d7338261237a565b7f3b8796b683aeef8d210dbaca7e0b181f822d0bcd120773c175b0e4c29c2f59e733604051808273ffffffffffffffffffffffffffffffffffffffff1673ffffffffffffffffffffffffffffffffffffffff16815260200191505060405180910390a150565b600260009054906101000a900460ff16156117c0576040517f08c379a00000000000000000000000000000000000000000000000000000000081526004018080602001828103825260108152602001807f5061757361626c653a207061757365640000000000000000000000000000000081525060200191505060405180910390fd5b6117ca33826127bc565b7f1a55cf9e5988ca515ccaf10544c777cd1796f14c7b4a24b9c4600b902c2a52723382604051808373ffffffffffffffffffffffffffffffffffffffff1673ffffffffffffffffffffffffffffffffffffffff1681526020018281526020019250505060405180910390a150565b60008060009054906101000a900473ffffffffffffffffffffffffffffffffffffffff16905090565b60008060009054906101000a900473ffffffffffffffffffffffffffffffffffffffff1673ffffffffffffffffffffffffffffffffffffffff163373ffffffffffffffffffffffffffffffffffffffff1614905090565b6000600b60008473ffffffffffffffffffffffffffffffffffffffff1673ffffffffffffffffffffffffffffffffffffffff16815260200190815260200160002060008373ffffffffffffffffffffffffffffffffffffffff1673ffffffffffffffffffffffffffffffffffffffff16815260200190815260200160002060009054906101000a900460ff16905092915050565b6000611962826004611f6e90919063ffffffff16565b156119705760019050611975565b600090505b919050565b60006119858261204c565b9050919050565b7f434f4f504552415449564500000000000000000000000000000000000000000081565b7f544543484e494349414e0000000000000000000000000000000000000000000081565b7f434552544946494552000000000000000000000000000000000000000000000081565b6000611a0e826003611f6e90919063ffffffff16565b15611a1c5760019050611a21565b600090505b919050565b7f42454e454649540000000000000000000000000000000000000000000000000081565b7f524f41535445520000000000000000000000000000000000000000000000000081565b600260009054906101000a900460ff1615611af1576040517f08c379a00000000000000000000000000000000000000000000000000000000081526004018080602001828103825260108152602001807f5061757361626c653a207061757365640000000000000000000000000000000081525060200191505060405180910390fd5b611b05336004611f6e90919063ffffffff16565b611b77576040517f08c379a00000000000000000000000000000000000000000000000000000000081526004018080602001828103825260118152602001807f6e6f74206120636f6f706572617469766500000000000000000000000000000081525060200191505060405180910390fd5b611b8181836127bc565b611b8d81336001612260565b3373ffffffffffffffffffffffffffffffffffffffff168173ffffffffffffffffffffffffffffffffffffffff167fa37d42035b1b045dd4fb0eb340f36a63f5b1b958bfd767654465d7db3f79c43160013360405180831515151581526020018273ffffffffffffffffffffffffffffffffffffffff1673ffffffffffffffffffffffffffffffffffffffff1681526020019250505060405180910390a37fcf51eacdc6988eb86cd7965439daeb441bc86a3ed1e7857eb6c5b908ea7f84cb338284604051808473ffffffffffffffffffffffffffffffffffffffff1673ffffffffffffffffffffffffffffffffffffffff1681526020018373ffffffffffffffffffffffffffffffffffffffff1673ffffffffffffffffffffffffffffffffffffffff168152602001828152602001935050505060405180910390a15050565b611cd6611861565b611d48576040517f08c379a00000000000000000000000000000000000000000000000000000000081526004018080602001828103825260208152602001807f4f776e61626c653a2063616c6c6572206973206e6f7420746865206f776e657281525060200191505060405180910390fd5b611d5181612b49565b50565b6000611d6a82600a611f6e90919063ffffffff16565b15611d785760019050611d7d565b600090505b919050565b6000600260009054906101000a900460ff1615611e07576040517f08c379a00000000000000000000000000000000000000000000000000000000081526004018080602001828103825260108152602001807f5061757361626c653a207061757365640000000000000000000000000000000081525060200191505060405180910390fd5b611e1b336004611f6e90919063ffffffff16565b611e8d576040517f08c379a00000000000000000000000000000000000000000000000000000000081526004018080602001828103825260118152602001807f6e6f74206120636f6f706572617469766500000000000000000000000000000081525060200191505060405180910390fd5b611e98848484612260565b8273ffffffffffffffffffffffffffffffffffffffff168473ffffffffffffffffffffffffffffffffffffffff167fa37d42035b1b045dd4fb0eb340f36a63f5b1b958bfd767654465d7db3f79c431843360405180831515151581526020018273ffffffffffffffffffffffffffffffffffffffff1673ffffffffffffffffffffffffffffffffffffffff1681526020019250505060405180910390a3600190509392505050565b6000611f56826008611f6e90919063ffffffff16565b15611f645760019050611f69565b600090505b919050565b60008073ffffffffffffffffffffffffffffffffffffffff168273ffffffffffffffffffffffffffffffffffffffff161415611ff5576040517f08c379a00000000000000000000000000000000000000000000000000000000081526004018080602001828103825260228152602001806130006022913960400191505060405180910390fd5b8260000160008373ffffffffffffffffffffffffffffffffffffffff1673ffffffffffffffffffffffffffffffffffffffff16815260200190815260200160002060009054906101000a900460ff16905092915050565b6000612062826003611f6e90919063ffffffff16565b1561208f577f4641524d45520000000000000000000000000000000000000000000000000000905061225b565b6120a3826004611f6e90919063ffffffff16565b156120d0577f434f4f5045524154495645000000000000000000000000000000000000000000905061225b565b6120e4826005611f6e90919063ffffffff16565b15612111577f4345525449464945520000000000000000000000000000000000000000000000905061225b565b612125826006611f6e90919063ffffffff16565b15612152577f544543484e494349414e00000000000000000000000000000000000000000000905061225b565b612166826007611f6e90919063ffffffff16565b15612193577f5441535445520000000000000000000000000000000000000000000000000000905061225b565b6121a7826008611f6e90919063ffffffff16565b156121d4577f56414c494441544f520000000000000000000000000000000000000000000000905061225b565b6121e8826009611f6e90919063ffffffff16565b15612215577f42454e4546495400000000000000000000000000000000000000000000000000905061225b565b61222982600a611f6e90919063ffffffff16565b15612256577f524f415354455200000000000000000000000000000000000000000000000000905061225b565b600090505b919050565b82600061226c8261204c565b14156122e0576040517f08c379a00000000000000000000000000000000000000000000000000000000081526004018080602001828103825260148152602001807f6163746f7220646f65736e27742065786973747300000000000000000000000081525060200191505060405180910390fd5b81600b60008673ffffffffffffffffffffffffffffffffffffffff1673ffffffffffffffffffffffffffffffffffffffff16815260200190815260200160002060008573ffffffffffffffffffffffffffffffffffffffff1673ffffffffffffffffffffffffffffffffffffffff16815260200190815260200160002060006101000a81548160ff02191690831515021790555050505050565b600260009054906101000a900460ff16156123fd576040517f08c379a00000000000000000000000000000000000000000000000000000000081526004018080602001828103825260108152602001807f5061757361626c653a207061757365640000000000000000000000000000000081525060200191505060405180910390fd5b3360006124098261204c565b141561247d576040517f08c379a00000000000000000000000000000000000000000000000000000000081526004018080602001828103825260148152602001807f6163746f7220646f65736e27742065786973747300000000000000000000000081525060200191505060405180910390fd5b61248682612c8d565b6124f8576040517f08c379a000000000000000000000000000000000000000000000000000000000815260040180806020018281038252600c8152602001807f696e76616c696420726f6c65000000000000000000000000000000000000000081525060200191505060405180910390fd5b7f4641524d4552000000000000000000000000000000000000000000000000000082141561253957612534836003612df090919063ffffffff16565b612703565b7f434f4f504552415449564500000000000000000000000000000000000000000082141561257a57612575836004612df090919063ffffffff16565b612702565b7f43455254494649455200000000000000000000000000000000000000000000008214156125bb576125b6836005612df090919063ffffffff16565b612701565b7f544543484e494349414e000000000000000000000000000000000000000000008214156125fc576125f7836006612df090919063ffffffff16565b612700565b7f544153544552000000000000000000000000000000000000000000000000000082141561263d57612638836007612df090919063ffffffff16565b6126ff565b7f56414c494441544f52000000000000000000000000000000000000000000000082141561267e57612679836008612df090919063ffffffff16565b6126fe565b7f42454e45464954000000000000000000000000000000000000000000000000008214156126bf576126ba836009612df090919063ffffffff16565b6126fd565b7f524f4153544552000000000000000000000000000000000000000000000000008214156126fc576126fb83600a612df090919063ffffffff16565b5b5b5b5b5b5b5b5b505050565b61271c816001612df090919063ffffffff16565b8073ffffffffffffffffffffffffffffffffffffffff167fcd265ebaf09df2871cc7bd4133404a235ba12eff2041bb89d9c714a2621c7c7e60405160405180910390a250565b612776816001612ead90919063ffffffff16565b8073ffffffffffffffffffffffffffffffffffffffff167f6719d08c1888103bea251a4ed56406bd0c3e69723c8a1686e017e7bbe159b6f860405160405180910390a250565b600260009054906101000a900460ff161561283f576040517f08c379a00000000000000000000000000000000000000000000000000000000081526004018080602001828103825260108152602001807f5061757361626c653a207061757365640000000000000000000000000000000081525060200191505060405180910390fd5b81600061284b8261204c565b146128be576040517f08c379a00000000000000000000000000000000000000000000000000000000081526004018080602001828103825260148152602001807f6163746f7220616c72656164792065786973747300000000000000000000000081525060200191505060405180910390fd5b6128c782612c8d565b612939576040517f08c379a000000000000000000000000000000000000000000000000000000000815260040180806020018281038252600c8152602001807f696e76616c696420726f6c65000000000000000000000000000000000000000081525060200191505060405180910390fd5b7f4641524d4552000000000000000000000000000000000000000000000000000082141561297a57612975836003612ead90919063ffffffff16565b612b44565b7f434f4f50455241544956450000000000000000000000000000000000000000008214156129bb576129b6836004612ead90919063ffffffff16565b612b43565b7f43455254494649455200000000000000000000000000000000000000000000008214156129fc576129f7836005612ead90919063ffffffff16565b612b42565b7f544543484e494349414e00000000000000000000000000000000000000000000821415612a3d57612a38836006612ead90919063ffffffff16565b612b41565b7f5441535445520000000000000000000000000000000000000000000000000000821415612a7e57612a79836007612ead90919063ffffffff16565b612b40565b7f56414c494441544f520000000000000000000000000000000000000000000000821415612abf57612aba836008612ead90919063ffffffff16565b612b3f565b7f42454e4546495400000000000000000000000000000000000000000000000000821415612b0057612afb836009612ead90919063ffffffff16565b612b3e565b7f524f415354455200000000000000000000000000000000000000000000000000821415612b3d57612b3c83600a612ead90919063ffffffff16565b5b5b5b5b5b5b5b5b505050565b600073ffffffffffffffffffffffffffffffffffffffff168173ffffffffffffffffffffffffffffffffffffffff161415612bcf576040517f08c379a0000000000000000000000000000000000000000000000000000000008152600401808060200182810382526026815260200180612fb96026913960400191505060405180910390fd5b8073ffffffffffffffffffffffffffffffffffffffff166000809054906101000a900473ffffffffffffffffffffffffffffffffffffffff1673ffffffffffffffffffffffffffffffffffffffff167f8be0079c531659141344cd1fd0a4f28419497f9722a3daafe3b4186f6b6457e060405160405180910390a3806000806101000a81548173ffffffffffffffffffffffffffffffffffffffff021916908373ffffffffffffffffffffffffffffffffffffffff16021790555050565b60007f4641524d45520000000000000000000000000000000000000000000000000000821480612cdc57507f434f4f504552415449564500000000000000000000000000000000000000000082145b80612d0657507f434552544946494552000000000000000000000000000000000000000000000082145b80612d3057507f544543484e494349414e0000000000000000000000000000000000000000000082145b80612d5a57507f544153544552000000000000000000000000000000000000000000000000000082145b80612d8457507f56414c494441544f52000000000000000000000000000000000000000000000082145b80612dae57507f42454e454649540000000000000000000000000000000000000000000000000082145b80612dd857507f524f41535445520000000000000000000000000000000000000000000000000082145b15612de65760019050612deb565b600090505b919050565b612dfa8282611f6e565b612e4f576040517f08c379a0000000000000000000000000000000000000000000000000000000008152600401808060200182810382526021815260200180612fdf6021913960400191505060405180910390fd5b60008260000160008373ffffffffffffffffffffffffffffffffffffffff1673ffffffffffffffffffffffffffffffffffffffff16815260200190815260200160002060006101000a81548160ff0219169083151502179055505050565b612eb78282611f6e565b15612f2a576040517f08c379a000000000000000000000000000000000000000000000000000000000815260040180806020018281038252601f8152602001807f526f6c65733a206163636f756e7420616c72656164792068617320726f6c650081525060200191505060405180910390fd5b60018260000160008373ffffffffffffffffffffffffffffffffffffffff1673ffffffffffffffffffffffffffffffffffffffff16815260200190815260200160002060006101000a81548160ff021916908315150217905550505056fe506175736572526f6c653a2063616c6c657220646f6573206e6f742068617665207468652050617573657220726f6c654f776e61626c653a206e6577206f776e657220697320746865207a65726f2061646472657373526f6c65733a206163636f756e7420646f6573206e6f74206861766520726f6c65526f6c65733a206163636f756e7420697320746865207a65726f2061646472657373a265627a7a72305820a650bb623276e3e3c0877b3c81db4f06596ad3f2d8656d1c94dc95adcc7316de64736f6c63430005090032526f6c65733a206163636f756e7420697320746865207a65726f2061646472657373",
  "source": "pragma solidity ^0.5.9;\n\n/** @title Actor Factory.\n *  @author Affogato\n */\n\nimport 'openzeppelin-solidity/contracts/lifecycle/Pausable.sol';\nimport 'openzeppelin-solidity/contracts/ownership/Ownable.sol';\nimport \"openzeppelin-solidity/contracts/access/Roles.sol\";\nimport \"./interfaces/IActor.sol\";\n\ncontract ActorFactory is Ownable, Pausable, IActor {\n\n    /** @notice Defines the roles of the actors. */\n    using Roles for Roles.Role;\n    Roles.Role private _farmers;\n    Roles.Role private _cooperatives;\n    Roles.Role private _certifiers;\n    Roles.Role private _technicians;\n    Roles.Role private _tasters;\n    Roles.Role private _validators;\n    Roles.Role private _benefits;\n    Roles.Role private _roasters;\n\n    /** Roles Constants */\n    bytes32 public constant FARMER = \"FARMER\";\n    bytes32 public constant COOPERATIVE = \"COOPERATIVE\";\n    bytes32 public constant CERTIFIER = \"CERTIFIER\";\n    bytes32 public constant TECHNICIAN = \"TECHNICIAN\";\n    bytes32 public constant TASTER = \"TASTER\";\n    bytes32 public constant VALIDATOR = \"VALIDATOR\";\n    bytes32 public constant BENEFIT = \"BENEFIT\";\n    bytes32 public constant ROASTER = \"ROASTER\";\n\n    /** @notice Logs when an Actor is created. */\n    event LogAddActor(\n        address _actorAddress,\n        bytes32 _role\n    );\n\n    /** @notice Logs when a cooperative creates an Actor. */\n    event LogCooperativeAddActor(\n        address _cooperativeAddress,\n        address _actorAddress,\n        bytes32 _role\n    );\n\n    /** @notice Logs when an Actor is destroyed. */\n    event LogDestroyActor(\n        address _actorAddress\n    );\n\n    /** @notice Logs when a cooperative destroys an Actor. */\n    event LogCooperativeDestroyActor(\n        address _cooperativeAddress,\n        address _actorAddress\n    );\n\n    /** @notice Logs when an Actor gives permission. */\n    event LogApproval(\n        address indexed _owner,\n        address indexed _allowed,\n        bool _value\n    );\n\n    /** @notice Logs when a Cooperative approves for an Actor. */\n    event LogCooperativeApproval(\n        address indexed _owner,\n        address indexed _allowed,\n        bool _value,\n        address _cooperativeAddress\n    );\n\n    /** @notice Throws if called by any account other than a cooperative. */\n    modifier onlyCooperative(){\n        require(_cooperatives.has(msg.sender), \"not a cooperative\");\n        _;\n    }\n\n    /** @notice Throws if called by any account that doesn't exist\n      * @param _actorAddress address of actor to check\n      */\n    modifier onlyExistingActor(address _actorAddress){\n        require(_getAccountType(_actorAddress) != \"\", \"actor doesn't exists\");\n        _;\n    }\n\n    /** @notice Throws if called by any account that does exist\n      * @param _actorAddress address of actor to check\n      */\n    modifier onlyNotExistingActor(address _actorAddress){\n        require(_getAccountType(_actorAddress) == \"\", \"actor already exists\");\n        _;\n    }\n\n    /** @notice Mapping of permissions one account has given to other. */\n    mapping(address => mapping(address => bool)) private allowed_;\n\n    /** @notice Gets the type of the account.\n      * @param _owner address of the owner.\n      * @return returns a bytes32 with the type of account or empty if there is no account\n      */\n    function _getAccountType(address _owner) private view returns (bytes32) {\n        if(_farmers.has(_owner)){\n            return FARMER;\n        }else if(_cooperatives.has(_owner)){\n            return COOPERATIVE;\n        }else if(_certifiers.has(_owner)){\n            return CERTIFIER;\n        }else if(_technicians.has(_owner)){\n            return TECHNICIAN;\n        }else if(_tasters.has(_owner)){\n            return TASTER;\n        }else if(_validators.has(_owner)){\n            return VALIDATOR;\n        }else if(_benefits.has(_owner)){\n            return BENEFIT;\n        }else if(_roasters.has(_owner)){\n            return ROASTER;\n        }\n        return \"\";\n    }\n\n    /** @notice Gets the type of the account.\n      * @param _owner address of the owner.\n      * @return returns a bytes32 with the type of account or empty if there is no account\n      */\n    function getAccountType(address _owner) external view returns (bytes32) {\n        return (_getAccountType(_owner));\n    }\n\n    /** @notice Gets the type of the sender account.\n      * @return returns a bytes32 with the type of account or empty if there is no account\n      */\n    function getSenderRole() external view returns (bytes32) {\n        return _getAccountType(msg.sender);\n    }\n\n    /** @notice Checks if a user has permission from another user.\n      * @param _allower address of the allower.\n      * @param _allowed address of the actor to check if has permission.\n      * @return returns a boolean if it has permission.\n      */\n    function isAllowed(address _allower, address _allowed) external view returns (bool) {\n        return allowed_[_allower][_allowed];\n    }\n\n    /** @notice checks if an actor exists\n      * @param _actorAddress address of actor to check\n      * @return true if is exists false if not\n      */\n    function actorExists(address _actorAddress) external view returns(bool){\n        if(_getAccountType(_actorAddress) != \"\"){\n            return true;\n        }\n        return false;\n    }\n\n    /** @notice checks if a role exists\n      * @param _role bytes32 of role to check\n      * @return true if is exists false if not\n      */\n    function isValidRole(bytes32 _role) internal pure returns(bool){\n        if(\n            _role == FARMER ||\n            _role == COOPERATIVE ||\n            _role == CERTIFIER ||\n            _role == TECHNICIAN ||\n            _role == TASTER ||\n            _role == VALIDATOR ||\n            _role == BENEFIT ||\n            _role == ROASTER\n        ){\n            return true;\n        }\n        return false;\n    }\n\n    /** @notice checks if account is a farmer\n      * @param _accountAddress address of account to check\n      * @return true if is exists false if not\n      */\n    function isFarmer(address _accountAddress) external view returns (bool){\n        if(_farmers.has(_accountAddress)){\n            return true;\n        }\n        return false;\n    }\n\n    /** @notice checks if account is a cooperative\n      * @param _accountAddress address of account to check\n      * @return true if is exists false if not\n      */\n    function isCooperative(address _accountAddress) external view returns (bool){\n        if(_cooperatives.has(_accountAddress)){\n            return true;\n        }\n        return false;\n    }\n\n    /** @notice checks if account is a certifier\n      * @param _accountAddress address of account to check\n      * @return true if is exists false if not\n      */\n    function isCertifier(address _accountAddress) external view returns (bool){\n        if(_certifiers.has(_accountAddress)){\n            return true;\n        }\n        return false;\n    }\n\n    /** @notice checks if account is a technician\n      * @param _accountAddress address of account to check\n      * @return true if is exists false if not\n      */\n    function isTechnician(address _accountAddress) external view returns (bool){\n        if(_technicians.has(_accountAddress)){\n            return true;\n        }\n        return false;\n    }\n\n    /** @notice checks if account is a taster\n      * @param _accountAddress address of account to check\n      * @return true if is exists false if not\n      */\n    function isTaster(address _accountAddress) external view returns (bool){\n        if(_tasters.has(_accountAddress)){\n            return true;\n        }\n        return false;\n    }\n\n    /** @notice checks if account is a validator\n      * @param _accountAddress address of account to check\n      * @return true if is exists false if not\n      */\n    function isValidator(address _accountAddress) external view returns (bool){\n        if(_validators.has(_accountAddress)){\n            return true;\n        }\n        return false;\n    }\n\n    /** @notice checks if account is a benefit\n      * @param _accountAddress address of account to check\n      * @return true if is exists false if not\n      */\n    function isBenefit(address _accountAddress) external view returns (bool){\n        if(_benefits.has(_accountAddress)){\n            return true;\n        }\n        return false;\n    }\n\n    /** @notice checks if account is a roaster\n      * @param _accountAddress address of account to check\n      * @return true if is exists false if not\n      */\n    function isRoaster(address _accountAddress) external view returns (bool){\n        if(_roasters.has(_accountAddress)){\n            return true;\n        }\n        return false;\n    }\n\n    /** @notice creates a new actor\n      * @param _actorAddress address of the actor.\n      * @param _role type of account of the actor.\n      */\n    function _addActor(address _actorAddress, bytes32 _role) private whenNotPaused onlyNotExistingActor(_actorAddress) {\n        require(isValidRole(_role), \"invalid role\");\n        if( _role == FARMER){\n            _farmers.add(_actorAddress);\n        } else if( _role == COOPERATIVE){\n            _cooperatives.add(_actorAddress);\n        } else if( _role == CERTIFIER){\n            _certifiers.add(_actorAddress);\n        } else if( _role == TECHNICIAN){\n            _technicians.add(_actorAddress);\n        } else if( _role == TASTER){\n            _tasters.add(_actorAddress);\n        } else if( _role == VALIDATOR){\n            _validators.add(_actorAddress);\n        } else if( _role == BENEFIT){\n            _benefits.add(_actorAddress);\n        } else if( _role == ROASTER){\n            _roasters.add(_actorAddress);\n        }\n    }\n\n    /** @notice creates a new actor from sender\n      * @param _role type of account of the actor.\n      */\n    function addActor(bytes32 _role) public whenNotPaused {\n        _addActor(msg.sender, _role);\n        emit LogAddActor(msg.sender, _role);\n    }\n\n    /** @notice Cooperative creates new actor\n      * @param _role type of account of the actor.\n      * @param _actorAddress address of the actor.\n      * @dev Only Cooperatives can call this method\n      */\n    function cooperativeAddActor(\n        bytes32 _role,\n        address _actorAddress\n    ) external whenNotPaused onlyCooperative {\n        _addActor(_actorAddress, _role);\n        _approve(_actorAddress,msg.sender,true);\n        emit LogCooperativeApproval(_actorAddress, msg.sender, true, msg.sender);\n        emit LogCooperativeAddActor(msg.sender, _actorAddress, _role);\n    }\n\n    /** @notice approves actor\n      * @param _allower address of actor to assign the permission.\n      * @param _allowed address of actor to assign the permission.\n      * @param _value value to be set.\n      * @return true if is success\n      */\n    function _approve(address _allower, address _allowed, bool _value) private onlyExistingActor(_allower){\n        allowed_[_allower][_allowed] = _value;\n    }\n\n    /** @notice approves actor\n      * @param _allowed address of actor to assign the permission.\n      * @param _value value to be set.\n      * @return true if is success\n      */\n    function approve(address _allowed, bool _value) external whenNotPaused returns (bool) {\n        _approve(msg.sender,_allowed,_value);\n        emit LogApproval(msg.sender, _allowed, _value);\n        return true;\n    }\n\n    /** @notice approves actor from cooperative\n      * @param _allower address of actor to giving the permission.\n      * @param _allowed address of actor to assign the permission.\n      * @param _value value to be set.\n      * @return true if is success\n      * @dev Only Cooperatives can call this method\n      */\n    function cooperativeApprove(address _allower, address _allowed, bool _value) external\n        whenNotPaused onlyCooperative returns (bool)\n    {\n        _approve(_allower,_allowed,_value);\n        emit LogCooperativeApproval(_allower, _allowed, _value, msg.sender);\n        return true;\n    }\n\n    /** @notice destroys an actor\n      * @param _actorAddress type of account of the actor.\n      * @param _role type of account of the actor.\n      */\n    function _destroyActor(address _actorAddress, bytes32 _role) private whenNotPaused onlyExistingActor(msg.sender){\n        require(isValidRole(_role), \"invalid role\");\n        if( _role == FARMER){\n            _farmers.remove(_actorAddress);\n        } else if( _role == COOPERATIVE){\n            _cooperatives.remove(_actorAddress);\n        } else if( _role == CERTIFIER){\n            _certifiers.remove(_actorAddress);\n        } else if( _role == TECHNICIAN){\n            _technicians.remove(_actorAddress);\n        } else if( _role == TASTER){\n            _tasters.remove(_actorAddress);\n        } else if( _role == VALIDATOR){\n            _validators.remove(_actorAddress);\n        } else if( _role == BENEFIT){\n            _benefits.remove(_actorAddress);\n        } else if( _role == ROASTER){\n            _roasters.remove(_actorAddress);\n        }\n    }\n\n    /** @notice destroys an actor\n      * @dev only actor can destroy account\n      */\n    function destroyActor() external whenNotPaused {\n        bytes32 role = _getAccountType(msg.sender);\n        _destroyActor(msg.sender,role);\n        emit LogDestroyActor(msg.sender);\n    }\n\n    /** @notice destroys an actor\n      * @param _actorAddress address of the actor.\n      * @dev Only Cooperatives can call this method\n      * @dev only actor can destroy account\n      */\n    function cooperativeDestroyActor(address _actorAddress) external whenNotPaused onlyCooperative {\n        bytes32 role = _getAccountType(_actorAddress);\n        _destroyActor(_actorAddress,role);\n        emit LogCooperativeDestroyActor(msg.sender, _actorAddress);\n    }\n\n    /** @notice destroys contract\n      * @dev Only Owner can call this method\n      */\n    function destroy() public onlyOwner {\n        address payable owner = address(uint160(owner()));\n        selfdestruct(owner);\n    }\n\n    /** @notice reverts if ETH is sent */\n    function() external payable{\n      revert(\"Contract can't receive Ether\");\n    }\n}\n",
  "sourcePath": "/Users/oscarr/Ethereum/wrapped_coffee_coin/contracts/ActorFactory.sol",
  "compiler": {
    "name": "solc",
    "version": "0.5.9+commit.e560f70d.Emscripten.clang"
  },
  "schemaVersion": "3.0.14",
  "updatedAt": "2019-09-05T18:44:07.129Z",
  "devdoc": {
    "methods": {
      "actorExists(address)": {
        "params": {
          "_actorAddress": "address of actor to check"
        },
        "return": "true if is exists false if not"
      },
      "addActor(bytes32)": {
        "params": {
          "_role": "type of account of the actor."
        }
      },
      "approve(address,bool)": {
        "params": {
          "_allowed": "address of actor to assign the permission.",
          "_value": "value to be set."
        },
        "return": "true if is success"
      },
      "cooperativeAddActor(bytes32,address)": {
        "details": "Only Cooperatives can call this method",
        "params": {
          "_actorAddress": "address of the actor.",
          "_role": "type of account of the actor."
        }
      },
      "cooperativeApprove(address,address,bool)": {
        "details": "Only Cooperatives can call this method",
        "params": {
          "_allowed": "address of actor to assign the permission.",
          "_allower": "address of actor to giving the permission.",
          "_value": "value to be set."
        },
        "return": "true if is success"
      },
      "cooperativeDestroyActor(address)": {
        "details": "Only Cooperatives can call this methodonly actor can destroy account",
        "params": {
          "_actorAddress": "address of the actor."
        }
      },
      "destroy()": {
        "details": "Only Owner can call this method"
      },
      "destroyActor()": {
        "details": "only actor can destroy account"
      },
      "getAccountType(address)": {
        "params": {
          "_owner": "address of the owner."
        },
        "return": "returns a bytes32 with the type of account or empty if there is no account"
      },
      "getSenderRole()": {
        "return": "returns a bytes32 with the type of account or empty if there is no account"
      },
      "isAllowed(address,address)": {
        "params": {
          "_allowed": "address of the actor to check if has permission.",
          "_allower": "address of the allower."
        },
        "return": "returns a boolean if it has permission."
      },
      "isBenefit(address)": {
        "params": {
          "_accountAddress": "address of account to check"
        },
        "return": "true if is exists false if not"
      },
      "isCertifier(address)": {
        "params": {
          "_accountAddress": "address of account to check"
        },
        "return": "true if is exists false if not"
      },
      "isCooperative(address)": {
        "params": {
          "_accountAddress": "address of account to check"
        },
        "return": "true if is exists false if not"
      },
      "isFarmer(address)": {
        "params": {
          "_accountAddress": "address of account to check"
        },
        "return": "true if is exists false if not"
      },
      "isOwner()": {
        "details": "Returns true if the caller is the current owner."
      },
      "isRoaster(address)": {
        "params": {
          "_accountAddress": "address of account to check"
        },
        "return": "true if is exists false if not"
      },
      "isTaster(address)": {
        "params": {
          "_accountAddress": "address of account to check"
        },
        "return": "true if is exists false if not"
      },
      "isTechnician(address)": {
        "params": {
          "_accountAddress": "address of account to check"
        },
        "return": "true if is exists false if not"
      },
      "isValidator(address)": {
        "params": {
          "_accountAddress": "address of account to check"
        },
        "return": "true if is exists false if not"
      },
      "owner()": {
        "details": "Returns the address of the current owner."
      },
      "pause()": {
        "details": "Called by a pauser to pause, triggers stopped state."
      },
      "paused()": {
        "details": "Returns true if the contract is paused, and false otherwise."
      },
      "renounceOwnership()": {
        "details": "Leaves the contract without owner. It will not be possible to call `onlyOwner` functions anymore. Can only be called by the current owner.     * > Note: Renouncing ownership will leave the contract without an owner, thereby removing any functionality that is only available to the owner."
      },
      "transferOwnership(address)": {
        "details": "Transfers ownership of the contract to a new account (`newOwner`). Can only be called by the current owner."
      },
      "unpause()": {
        "details": "Called by a pauser to unpause, returns to normal state."
      }
    }
  },
  "userdoc": {
    "methods": {
      "actorExists(address)": {
        "notice": "checks if an actor exists"
      },
      "addActor(bytes32)": {
        "notice": "creates a new actor from sender"
      },
      "approve(address,bool)": {
        "notice": "approves actor"
      },
      "cooperativeAddActor(bytes32,address)": {
        "notice": "Cooperative creates new actor"
      },
      "cooperativeApprove(address,address,bool)": {
        "notice": "approves actor from cooperative"
      },
      "cooperativeDestroyActor(address)": {
        "notice": "destroys an actor"
      },
      "destroy()": {
        "notice": "destroys contract"
      },
      "destroyActor()": {
        "notice": "destroys an actor"
      },
      "getAccountType(address)": {
        "notice": "Gets the type of the account."
      },
      "getSenderRole()": {
        "notice": "Gets the type of the sender account."
      },
      "isAllowed(address,address)": {
        "notice": "Checks if a user has permission from another user."
      },
      "isBenefit(address)": {
        "notice": "checks if account is a benefit"
      },
      "isCertifier(address)": {
        "notice": "checks if account is a certifier"
      },
      "isCooperative(address)": {
        "notice": "checks if account is a cooperative"
      },
      "isFarmer(address)": {
        "notice": "checks if account is a farmer"
      },
      "isRoaster(address)": {
        "notice": "checks if account is a roaster"
      },
      "isTaster(address)": {
        "notice": "checks if account is a taster"
      },
      "isTechnician(address)": {
        "notice": "checks if account is a technician"
      },
      "isValidator(address)": {
        "notice": "checks if account is a validator"
      }
    }
  }
}