{
  "contractName": "ERC1155",
  "abi": [
    {
      "constant": true,
      "inputs": [
        {
          "name": "",
          "type": "uint256"
        }
      ],
      "name": "uris",
      "outputs": [
        {
          "name": "",
          "type": "string"
        }
      ],
      "payable": false,
      "stateMutability": "view",
      "type": "function"
    },
    {
      "constant": false,
      "inputs": [],
      "name": "renounceOwnership",
      "outputs": [],
      "payable": false,
      "stateMutability": "nonpayable",
      "type": "function"
    },
    {
      "constant": true,
      "inputs": [
        {
          "name": "",
          "type": "uint256"
        }
      ],
      "name": "creationApprovals",
      "outputs": [
        {
          "name": "",
          "type": "bool"
        }
      ],
      "payable": false,
      "stateMutability": "view",
      "type": "function"
    },
    {
      "constant": true,
      "inputs": [],
      "name": "owner",
      "outputs": [
        {
          "name": "",
          "type": "address"
        }
      ],
      "payable": false,
      "stateMutability": "view",
      "type": "function"
    },
    {
      "constant": true,
      "inputs": [],
      "name": "isOwner",
      "outputs": [
        {
          "name": "",
          "type": "bool"
        }
      ],
      "payable": false,
      "stateMutability": "view",
      "type": "function"
    },
    {
      "constant": true,
      "inputs": [],
      "name": "nonce",
      "outputs": [
        {
          "name": "",
          "type": "uint256"
        }
      ],
      "payable": false,
      "stateMutability": "view",
      "type": "function"
    },
    {
      "constant": true,
      "inputs": [
        {
          "name": "",
          "type": "uint256"
        }
      ],
      "name": "creators",
      "outputs": [
        {
          "name": "",
          "type": "address"
        }
      ],
      "payable": false,
      "stateMutability": "view",
      "type": "function"
    },
    {
      "constant": true,
      "inputs": [
        {
          "name": "",
          "type": "uint256"
        }
      ],
      "name": "beneficiaries",
      "outputs": [
        {
          "name": "",
          "type": "address"
        }
      ],
      "payable": false,
      "stateMutability": "view",
      "type": "function"
    },
    {
      "constant": false,
      "inputs": [
        {
          "name": "newOwner",
          "type": "address"
        }
      ],
      "name": "transferOwnership",
      "outputs": [],
      "payable": false,
      "stateMutability": "nonpayable",
      "type": "function"
    },
    {
      "inputs": [
        {
          "name": "_actorFactoryAddress",
          "type": "address"
        }
      ],
      "payable": false,
      "stateMutability": "nonpayable",
      "type": "constructor"
    },
    {
      "anonymous": false,
      "inputs": [
        {
          "indexed": true,
          "name": "_operator",
          "type": "address"
        },
        {
          "indexed": true,
          "name": "_from",
          "type": "address"
        },
        {
          "indexed": false,
          "name": "_id",
          "type": "uint256"
        },
        {
          "indexed": false,
          "name": "_value",
          "type": "uint256"
        }
      ],
      "name": "BurnSingle",
      "type": "event"
    },
    {
      "anonymous": false,
      "inputs": [
        {
          "indexed": true,
          "name": "previousOwner",
          "type": "address"
        },
        {
          "indexed": true,
          "name": "newOwner",
          "type": "address"
        }
      ],
      "name": "OwnershipTransferred",
      "type": "event"
    },
    {
      "anonymous": false,
      "inputs": [
        {
          "indexed": true,
          "name": "_operator",
          "type": "address"
        },
        {
          "indexed": true,
          "name": "_from",
          "type": "address"
        },
        {
          "indexed": true,
          "name": "_to",
          "type": "address"
        },
        {
          "indexed": false,
          "name": "_id",
          "type": "uint256"
        },
        {
          "indexed": false,
          "name": "_value",
          "type": "uint256"
        }
      ],
      "name": "TransferSingle",
      "type": "event"
    },
    {
      "anonymous": false,
      "inputs": [
        {
          "indexed": true,
          "name": "_operator",
          "type": "address"
        },
        {
          "indexed": true,
          "name": "_from",
          "type": "address"
        },
        {
          "indexed": true,
          "name": "_to",
          "type": "address"
        },
        {
          "indexed": false,
          "name": "_ids",
          "type": "uint256[]"
        },
        {
          "indexed": false,
          "name": "_values",
          "type": "uint256[]"
        }
      ],
      "name": "TransferBatch",
      "type": "event"
    },
    {
      "anonymous": false,
      "inputs": [
        {
          "indexed": true,
          "name": "_owner",
          "type": "address"
        },
        {
          "indexed": true,
          "name": "_operator",
          "type": "address"
        },
        {
          "indexed": false,
          "name": "_approved",
          "type": "bool"
        }
      ],
      "name": "ApprovalForAll",
      "type": "event"
    },
    {
      "anonymous": false,
      "inputs": [
        {
          "indexed": false,
          "name": "_value",
          "type": "string"
        },
        {
          "indexed": true,
          "name": "_id",
          "type": "uint256"
        }
      ],
      "name": "URI",
      "type": "event"
    },
    {
      "constant": false,
      "inputs": [
        {
          "name": "_actorFactoryAddress",
          "type": "address"
        }
      ],
      "name": "setIActorAddress",
      "outputs": [],
      "payable": false,
      "stateMutability": "nonpayable",
      "type": "function"
    },
    {
      "constant": false,
      "inputs": [
        {
          "name": "_uri",
          "type": "string"
        },
        {
          "name": "_recipient",
          "type": "address"
        },
        {
          "name": "_initialSupply",
          "type": "uint256"
        }
      ],
      "name": "create",
      "outputs": [
        {
          "name": "_id",
          "type": "uint256"
        }
      ],
      "payable": false,
      "stateMutability": "nonpayable",
      "type": "function"
    },
    {
      "constant": false,
      "inputs": [
        {
          "name": "_id",
          "type": "uint256"
        },
        {
          "name": "_amount",
          "type": "uint256"
        },
        {
          "name": "_from",
          "type": "address"
        }
      ],
      "name": "burn",
      "outputs": [],
      "payable": false,
      "stateMutability": "nonpayable",
      "type": "function"
    },
    {
      "constant": false,
      "inputs": [
        {
          "name": "_id",
          "type": "uint256"
        }
      ],
      "name": "approveTokenCreation",
      "outputs": [],
      "payable": false,
      "stateMutability": "nonpayable",
      "type": "function"
    },
    {
      "constant": false,
      "inputs": [
        {
          "name": "_uri",
          "type": "string"
        },
        {
          "name": "_id",
          "type": "uint256"
        }
      ],
      "name": "setURI",
      "outputs": [],
      "payable": false,
      "stateMutability": "nonpayable",
      "type": "function"
    },
    {
      "constant": true,
      "inputs": [
        {
          "name": "_address",
          "type": "address"
        }
      ],
      "name": "getTokensWithBalance",
      "outputs": [
        {
          "name": "",
          "type": "uint256[]"
        }
      ],
      "payable": false,
      "stateMutability": "view",
      "type": "function"
    },
    {
      "constant": true,
      "inputs": [
        {
          "name": "_address",
          "type": "address"
        }
      ],
      "name": "getUnapprovedTokensWithBalance",
      "outputs": [
        {
          "name": "",
          "type": "uint256[]"
        }
      ],
      "payable": false,
      "stateMutability": "view",
      "type": "function"
    },
    {
      "constant": true,
      "inputs": [],
      "name": "getActorFactoryAddress",
      "outputs": [
        {
          "name": "",
          "type": "address"
        }
      ],
      "payable": false,
      "stateMutability": "view",
      "type": "function"
    },
    {
      "constant": true,
      "inputs": [
        {
          "name": "_interfaceId",
          "type": "bytes4"
        }
      ],
      "name": "supportsInterface",
      "outputs": [
        {
          "name": "",
          "type": "bool"
        }
      ],
      "payable": false,
      "stateMutability": "view",
      "type": "function"
    },
    {
      "constant": false,
      "inputs": [
        {
          "name": "_from",
          "type": "address"
        },
        {
          "name": "_to",
          "type": "address"
        },
        {
          "name": "_id",
          "type": "uint256"
        },
        {
          "name": "_value",
          "type": "uint256"
        },
        {
          "name": "_data",
          "type": "bytes"
        }
      ],
      "name": "safeTransferFrom",
      "outputs": [],
      "payable": false,
      "stateMutability": "nonpayable",
      "type": "function"
    },
    {
      "constant": false,
      "inputs": [
        {
          "name": "_from",
          "type": "address"
        },
        {
          "name": "_to",
          "type": "address"
        },
        {
          "name": "_ids",
          "type": "uint256[]"
        },
        {
          "name": "_values",
          "type": "uint256[]"
        },
        {
          "name": "_data",
          "type": "bytes"
        }
      ],
      "name": "safeBatchTransferFrom",
      "outputs": [],
      "payable": false,
      "stateMutability": "nonpayable",
      "type": "function"
    },
    {
      "constant": true,
      "inputs": [
        {
          "name": "_owner",
          "type": "address"
        },
        {
          "name": "_id",
          "type": "uint256"
        }
      ],
      "name": "balanceOf",
      "outputs": [
        {
          "name": "",
          "type": "uint256"
        }
      ],
      "payable": false,
      "stateMutability": "view",
      "type": "function"
    },
    {
      "constant": true,
      "inputs": [
        {
          "name": "_owners",
          "type": "address[]"
        },
        {
          "name": "_ids",
          "type": "uint256[]"
        }
      ],
      "name": "balanceOfBatch",
      "outputs": [
        {
          "name": "",
          "type": "uint256[]"
        }
      ],
      "payable": false,
      "stateMutability": "view",
      "type": "function"
    },
    {
      "constant": false,
      "inputs": [
        {
          "name": "_operator",
          "type": "address"
        },
        {
          "name": "_approved",
          "type": "bool"
        }
      ],
      "name": "setApprovalForAll",
      "outputs": [],
      "payable": false,
      "stateMutability": "nonpayable",
      "type": "function"
    },
    {
      "constant": true,
      "inputs": [
        {
          "name": "_owner",
          "type": "address"
        },
        {
          "name": "_operator",
          "type": "address"
        }
      ],
      "name": "isApprovedForAll",
      "outputs": [
        {
          "name": "",
          "type": "bool"
        }
      ],
      "payable": false,
      "stateMutability": "view",
      "type": "function"
    }
  ],
  "bytecode": "0x608060405234801561001057600080fd5b50604051613cfe380380613cfe8339818101604052602081101561003357600080fd5b8101908080519060200190929190505050336000806101000a81548173ffffffffffffffffffffffffffffffffffffffff021916908373ffffffffffffffffffffffffffffffffffffffff1602179055506000809054906101000a900473ffffffffffffffffffffffffffffffffffffffff1673ffffffffffffffffffffffffffffffffffffffff16600073ffffffffffffffffffffffffffffffffffffffff167f8be0079c531659141344cd1fd0a4f28419497f9722a3daafe3b4186f6b6457e060405160405180910390a380600160006101000a81548173ffffffffffffffffffffffffffffffffffffffff021916908373ffffffffffffffffffffffffffffffffffffffff16021790555050613bad806101516000396000f3fe608060405234801561001057600080fd5b50600436106101575760003560e01c80638da5cb5b116100c3578063b59173361161007c578063b591733614610943578063cd53d08e146109fa578063e985e9c514610a68578063efeb5e5814610ae4578063f242432a14610b52578063f2fde38b14610c1f57610157565b80638da5cb5b146107f75780638f32d59b14610841578063a22cb46514610863578063a80a814f146108b3578063a83b57fb146108f7578063affed0e01461092557610157565b80634e1273f4116101155780634e1273f41461051057806366d22a381461063357806367db3b8f146106cc578063715018a61461074f578063749388c4146107595780637f0d91d6146107b157610157565b8062fdd58e1461015c57806301ffc9a7146101be5780631253c546146102235780632448d9f8146102ca5780632eb2c2d61461031457806339bb4bec14610477575b600080fd5b6101a86004803603604081101561017257600080fd5b81019080803573ffffffffffffffffffffffffffffffffffffffff16906020019092919080359060200190929190505050610c63565b6040518082815260200191505060405180910390f35b610209600480360360208110156101d457600080fd5b8101908080357bffffffffffffffffffffffffffffffffffffffffffffffffffffffff19169060200190929190505050610d5a565b604051808215151515815260200191505060405180910390f35b61024f6004803603602081101561023957600080fd5b8101908080359060200190929190505050610e61565b6040518080602001828103825283818151815260200191508051906020019080838360005b8381101561028f578082015181840152602081019050610274565b50505050905090810190601f1680156102bc5780820380516001836020036101000a031916815260200191505b509250505060405180910390f35b6102d2610f11565b604051808273ffffffffffffffffffffffffffffffffffffffff1673ffffffffffffffffffffffffffffffffffffffff16815260200191505060405180910390f35b610475600480360360a081101561032a57600080fd5b81019080803573ffffffffffffffffffffffffffffffffffffffff169060200190929190803573ffffffffffffffffffffffffffffffffffffffff1690602001909291908035906020019064010000000081111561038757600080fd5b82018360208201111561039957600080fd5b803590602001918460208302840111640100000000831117156103bb57600080fd5b9091929391929390803590602001906401000000008111156103dc57600080fd5b8201836020820111156103ee57600080fd5b8035906020019184602083028401116401000000008311171561041057600080fd5b90919293919293908035906020019064010000000081111561043157600080fd5b82018360208201111561044357600080fd5b8035906020019184600183028401116401000000008311171561046557600080fd5b9091929391929390505050610f3b565b005b6104b96004803603602081101561048d57600080fd5b81019080803573ffffffffffffffffffffffffffffffffffffffff169060200190929190505050611618565b6040518080602001828103825283818151815260200191508051906020019060200280838360005b838110156104fc5780820151818401526020810190506104e1565b505050509050019250505060405180910390f35b6105dc6004803603604081101561052657600080fd5b810190808035906020019064010000000081111561054357600080fd5b82018360208201111561055557600080fd5b8035906020019184602083028401116401000000008311171561057757600080fd5b90919293919293908035906020019064010000000081111561059857600080fd5b8201836020820111156105aa57600080fd5b803590602001918460208302840111640100000000831117156105cc57600080fd5b90919293919293905050506117a1565b6040518080602001828103825283818151815260200191508051906020019060200280838360005b8381101561061f578082015181840152602081019050610604565b505050509050019250505060405180910390f35b6106756004803603602081101561064957600080fd5b81019080803573ffffffffffffffffffffffffffffffffffffffff169060200190929190505050611a11565b6040518080602001828103825283818151815260200191508051906020019060200280838360005b838110156106b857808201518184015260208101905061069d565b505050509050019250505060405180910390f35b61074d600480360360408110156106e257600080fd5b81019080803590602001906401000000008111156106ff57600080fd5b82018360208201111561071157600080fd5b8035906020019184600183028401116401000000008311171561073357600080fd5b909192939192939080359060200190929190505050611b93565b005b610757611d34565b005b6107af6004803603606081101561076f57600080fd5b810190808035906020019092919080359060200190929190803573ffffffffffffffffffffffffffffffffffffffff169060200190929190505050611e6d565b005b6107dd600480360360208110156107c757600080fd5b81019080803590602001909291905050506121c4565b604051808215151515815260200191505060405180910390f35b6107ff6121e4565b604051808273ffffffffffffffffffffffffffffffffffffffff1673ffffffffffffffffffffffffffffffffffffffff16815260200191505060405180910390f35b61084961220d565b604051808215151515815260200191505060405180910390f35b6108b16004803603604081101561087957600080fd5b81019080803573ffffffffffffffffffffffffffffffffffffffff169060200190929190803515159060200190929190505050612264565b005b6108f5600480360360208110156108c957600080fd5b81019080803573ffffffffffffffffffffffffffffffffffffffff169060200190929190505050612365565b005b6109236004803603602081101561090d57600080fd5b8101908080359060200190929190505050612423565b005b61092d612674565b6040518082815260200191505060405180910390f35b6109e46004803603606081101561095957600080fd5b810190808035906020019064010000000081111561097657600080fd5b82018360208201111561098857600080fd5b803590602001918460018302840111640100000000831117156109aa57600080fd5b9091929391929390803573ffffffffffffffffffffffffffffffffffffffff1690602001909291908035906020019092919050505061267a565b6040518082815260200191505060405180910390f35b610a2660048036036020811015610a1057600080fd5b8101908080359060200190929190505050612b3f565b604051808273ffffffffffffffffffffffffffffffffffffffff1673ffffffffffffffffffffffffffffffffffffffff16815260200191505060405180910390f35b610aca60048036036040811015610a7e57600080fd5b81019080803573ffffffffffffffffffffffffffffffffffffffff169060200190929190803573ffffffffffffffffffffffffffffffffffffffff169060200190929190505050612b72565b604051808215151515815260200191505060405180910390f35b610b1060048036036020811015610afa57600080fd5b8101908080359060200190929190505050612c06565b604051808273ffffffffffffffffffffffffffffffffffffffff1673ffffffffffffffffffffffffffffffffffffffff16815260200191505060405180910390f35b610c1d600480360360a0811015610b6857600080fd5b81019080803573ffffffffffffffffffffffffffffffffffffffff169060200190929190803573ffffffffffffffffffffffffffffffffffffffff169060200190929190803590602001909291908035906020019092919080359060200190640100000000811115610bd957600080fd5b820183602082011115610beb57600080fd5b80359060200191846001830284011164010000000083111715610c0d57600080fd5b9091929391929390505050612c39565b005b610c6160048036036020811015610c3557600080fd5b81019080803573ffffffffffffffffffffffffffffffffffffffff169060200190929190505050613105565b005b600081600115156005600083815260200190815260200160002060009054906101000a900460ff16151514610d00576040517f08c379a00000000000000000000000000000000000000000000000000000000081526004018080602001828103825260188152602001807f546f6b656e2079657420746f20626520617070726f766564000000000000000081525060200191505060405180910390fd5b6002600084815260200190815260200160002060008573ffffffffffffffffffffffffffffffffffffffff1673ffffffffffffffffffffffffffffffffffffffff1681526020019081526020016000205491505092915050565b6000630e89341c60e01b7bffffffffffffffffffffffffffffffffffffffffffffffffffffffff1916827bffffffffffffffffffffffffffffffffffffffffffffffffffffffff19161415610db25760019050610e5c565b6301ffc9a760e01b7bffffffffffffffffffffffffffffffffffffffffffffffffffffffff1916827bffffffffffffffffffffffffffffffffffffffffffffffffffffffff19161480610e49575063d9b67a2660e01b7bffffffffffffffffffffffffffffffffffffffffffffffffffffffff1916827bffffffffffffffffffffffffffffffffffffffffffffffffffffffff1916145b15610e575760019050610e5c565b600090505b919050565b60076020528060005260406000206000915090508054600181600116156101000203166002900480601f016020809104026020016040519081016040528092919081815260200182805460018160011615610100020316600290048015610f095780601f10610ede57610100808354040283529160200191610f09565b820191906000526020600020905b815481529060010190602001808311610eec57829003601f168201915b505050505081565b6000600160009054906101000a900473ffffffffffffffffffffffffffffffffffffffff16905090565b858580806020026020016040519081016040528093929190818152602001838360200280828437600081840152601f19601f8201169050808301925050505050505060006001905060008090505b8251811015610fef57600060056000858481518110610fa457fe5b6020026020010151815260200190815260200160002060009054906101000a900460ff169050828015610fd45750805b925080610fe15750610fef565b508080600101915050610f89565b5080611046576040517f08c379a0000000000000000000000000000000000000000000000000000000008152600401808060200182810382526036815260200180613abb6036913960400191505060405180910390fd5b600073ffffffffffffffffffffffffffffffffffffffff168973ffffffffffffffffffffffffffffffffffffffff1614156110cc576040517f08c379a00000000000000000000000000000000000000000000000000000000081526004018080602001828103825260258152602001806139936025913960400191505060405180910390fd5b85859050888890501461112a576040517f08c379a0000000000000000000000000000000000000000000000000000000008152600401808060200182810382526029815260200180613af16029913960400191505060405180910390fd5b3373ffffffffffffffffffffffffffffffffffffffff168a73ffffffffffffffffffffffffffffffffffffffff1614806111f1575060011515600360008c73ffffffffffffffffffffffffffffffffffffffff1673ffffffffffffffffffffffffffffffffffffffff16815260200190815260200160002060003373ffffffffffffffffffffffffffffffffffffffff1673ffffffffffffffffffffffffffffffffffffffff16815260200190815260200160002060009054906101000a900460ff161515145b611246576040517f08c379a000000000000000000000000000000000000000000000000000000000815260040180806020018281038252602f815260200180613a1d602f913960400191505060405180910390fd5b60008090505b8888905081101561143057600087878381811061126557fe5b9050602002013590506112e381600260008d8d8781811061128257fe5b90506020020135815260200190815260200160002060008f73ffffffffffffffffffffffffffffffffffffffff1673ffffffffffffffffffffffffffffffffffffffff1681526020019081526020016000205461318b90919063ffffffff16565b600260008c8c868181106112f357fe5b90506020020135815260200190815260200160002060008e73ffffffffffffffffffffffffffffffffffffffff1673ffffffffffffffffffffffffffffffffffffffff168152602001908152602001600020819055506113be600260008c8c8681811061135c57fe5b90506020020135815260200190815260200160002060008d73ffffffffffffffffffffffffffffffffffffffff1673ffffffffffffffffffffffffffffffffffffffff168152602001908152602001600020548261321490919063ffffffff16565b600260008c8c868181106113ce57fe5b90506020020135815260200190815260200160002060008d73ffffffffffffffffffffffffffffffffffffffff1673ffffffffffffffffffffffffffffffffffffffff168152602001908152602001600020819055505080600101905061124c565b508873ffffffffffffffffffffffffffffffffffffffff168a73ffffffffffffffffffffffffffffffffffffffff163373ffffffffffffffffffffffffffffffffffffffff167f4a39dc06d4c0dbc64b70af90fd698a233a518aa5d07e595d983b8c0526c8f7fb8b8b8b8b6040518080602001806020018381038352878782818152602001925060200280828437600081840152601f19601f8201169050808301925050508381038252858582818152602001925060200280828437600081840152601f19601f820116905080830192505050965050505050505060405180910390a46115328973ffffffffffffffffffffffffffffffffffffffff1661329c565b1561160c5761160b338b8b8b8b80806020026020016040519081016040528093929190818152602001838360200280828437600081840152601f19601f820116905080830192505050505050508a8a80806020026020016040519081016040528093929190818152602001838360200280828437600081840152601f19601f8201169050808301925050505050505089898080601f016020809104026020016040519081016040528093929190818152602001838380828437600081840152601f19601f820116905080830192505050505050506132af565b5b50505050505050505050565b60608060085460405190808252806020026020018201604052801561164c5781602001602082028038833980820191505090505b509050600080905060008090505b60085481116117195760006002600083815260200190815260200160002060008773ffffffffffffffffffffffffffffffffffffffff1673ffffffffffffffffffffffffffffffffffffffff168152602001908152602001600020541180156116e75750600015156005600083815260200190815260200160002060009054906101000a900460ff161515145b1561170c57808383806001019450815181106116ff57fe5b6020026020010181815250505b808060010191505061165a565b5060608160405190808252806020026020018201604052801561174b5781602001602082028038833980820191505090505b50905060008090505b828110156117955783818151811061176857fe5b602002602001015182828151811061177c57fe5b6020026020010181815250508080600101915050611754565b50809350505050919050565b6060828280806020026020016040519081016040528093929190818152602001838360200280828437600081840152601f19601f8201169050808301925050505050505060006001905060008090505b82518110156118575760006005600085848151811061180c57fe5b6020026020010151815260200190815260200160002060009054906101000a900460ff16905082801561183c5750805b9250806118495750611857565b5080806001019150506117f1565b50806118ae576040517f08c379a0000000000000000000000000000000000000000000000000000000008152600401808060200182810382526036815260200180613abb6036913960400191505060405180910390fd5b84849050878790501461190c576040517f08c379a00000000000000000000000000000000000000000000000000000000081526004018080602001828103825260378152602001806139b86037913960400191505060405180910390fd5b6060878790506040519080825280602002602001820160405280156119405781602001602082028038833980820191505090505b50905060008090505b88889050811015611a02576002600088888481811061196457fe5b90506020020135815260200190815260200160002060008a8a8481811061198757fe5b9050602002013573ffffffffffffffffffffffffffffffffffffffff1673ffffffffffffffffffffffffffffffffffffffff1673ffffffffffffffffffffffffffffffffffffffff168152602001908152602001600020548282815181106119eb57fe5b602002602001018181525050806001019050611949565b50809350505050949350505050565b606080600854604051908082528060200260200182016040528015611a455781602001602082028038833980820191505090505b509050600080905060008090505b6008548111611b0b5760006002600083815260200190815260200160002060008773ffffffffffffffffffffffffffffffffffffffff1673ffffffffffffffffffffffffffffffffffffffff16815260200190815260200160002054118015611ad957506005600082815260200190815260200160002060009054906101000a900460ff165b15611afe5780838380600101945081518110611af157fe5b6020026020010181815250505b8080600101915050611a53565b50606081604051908082528060200260200182016040528015611b3d5781602001602082028038833980820191505090505b50905060008090505b82811015611b8757838181518110611b5a57fe5b6020026020010151828281518110611b6e57fe5b6020026020010181815250508080600101915050611b46565b50809350505050919050565b803373ffffffffffffffffffffffffffffffffffffffff166004600083815260200190815260200160002060009054906101000a900473ffffffffffffffffffffffffffffffffffffffff1673ffffffffffffffffffffffffffffffffffffffff1614611c4b576040517f08c379a000000000000000000000000000000000000000000000000000000000815260040180806020018281038252602e8152602001806139ef602e913960400191505060405180910390fd5b60008484905011611ca7576040517f08c379a0000000000000000000000000000000000000000000000000000000008152600401808060200182810382526031815260200180613a8a6031913960400191505060405180910390fd5b8383600760008581526020019081526020016000209190611cc9929190613893565b50817f6bb7ff708619ba0610cba295a58592e0451dee2622938c8755667688daf3529b858560405180806020018281038252848482818152602001925080828437600081840152601f19601f820116905080830192505050935050505060405180910390a250505050565b611d3c61220d565b611dae576040517f08c379a00000000000000000000000000000000000000000000000000000000081526004018080602001828103825260208152602001807f4f776e61626c653a2063616c6c6572206973206e6f7420746865206f776e657281525060200191505060405180910390fd5b600073ffffffffffffffffffffffffffffffffffffffff166000809054906101000a900473ffffffffffffffffffffffffffffffffffffffff1673ffffffffffffffffffffffffffffffffffffffff167f8be0079c531659141344cd1fd0a4f28419497f9722a3daafe3b4186f6b6457e060405160405180910390a360008060006101000a81548173ffffffffffffffffffffffffffffffffffffffff021916908373ffffffffffffffffffffffffffffffffffffffff160217905550565b82600115156005600083815260200190815260200160002060009054906101000a900460ff16151514611f08576040517f08c379a00000000000000000000000000000000000000000000000000000000081526004018080602001828103825260188152602001807f546f6b656e2079657420746f20626520617070726f766564000000000000000081525060200191505060405180910390fd5b60008311611f7e576040517f08c379a00000000000000000000000000000000000000000000000000000000081526004018080602001828103825260178152602001807f596f752063616e2774206275726e203020746f6b656e7300000000000000000081525060200191505060405180910390fd5b8173ffffffffffffffffffffffffffffffffffffffff163373ffffffffffffffffffffffffffffffffffffffff161480612045575060011515600360008473ffffffffffffffffffffffffffffffffffffffff1673ffffffffffffffffffffffffffffffffffffffff16815260200190815260200160002060003373ffffffffffffffffffffffffffffffffffffffff1673ffffffffffffffffffffffffffffffffffffffff16815260200190815260200160002060009054906101000a900460ff161515145b61209a576040517f08c379a000000000000000000000000000000000000000000000000000000000815260040180806020018281038252602f815260200180613a1d602f913960400191505060405180910390fd5b6120fd836002600087815260200190815260200160002060008573ffffffffffffffffffffffffffffffffffffffff1673ffffffffffffffffffffffffffffffffffffffff1681526020019081526020016000205461318b90919063ffffffff16565b6002600086815260200190815260200160002060008473ffffffffffffffffffffffffffffffffffffffff1673ffffffffffffffffffffffffffffffffffffffff168152602001908152602001600020819055508173ffffffffffffffffffffffffffffffffffffffff163373ffffffffffffffffffffffffffffffffffffffff167f995c922928fc04a31c6446db7f51f402ddb95ac41fa3dca51c98ff1fe73005318686604051808381526020018281526020019250505060405180910390a350505050565b60056020528060005260406000206000915054906101000a900460ff1681565b60008060009054906101000a900473ffffffffffffffffffffffffffffffffffffffff16905090565b60008060009054906101000a900473ffffffffffffffffffffffffffffffffffffffff1673ffffffffffffffffffffffffffffffffffffffff163373ffffffffffffffffffffffffffffffffffffffff1614905090565b80600360003373ffffffffffffffffffffffffffffffffffffffff1673ffffffffffffffffffffffffffffffffffffffff16815260200190815260200160002060008473ffffffffffffffffffffffffffffffffffffffff1673ffffffffffffffffffffffffffffffffffffffff16815260200190815260200160002060006101000a81548160ff0219169083151502179055508173ffffffffffffffffffffffffffffffffffffffff163373ffffffffffffffffffffffffffffffffffffffff167f17307eab39ab6107e8899845ad3d59bd9653f200f220920489ca2b5937696c3183604051808215151515815260200191505060405180910390a35050565b61236d61220d565b6123df576040517f08c379a00000000000000000000000000000000000000000000000000000000081526004018080602001828103825260208152602001807f4f776e61626c653a2063616c6c6572206973206e6f7420746865206f776e657281525060200191505060405180910390fd5b80600160006101000a81548173ffffffffffffffffffffffffffffffffffffffff021916908373ffffffffffffffffffffffffffffffffffffffff16021790555050565b806006600082815260200190815260200160002060009054906101000a900473ffffffffffffffffffffffffffffffffffffffff1673ffffffffffffffffffffffffffffffffffffffff163373ffffffffffffffffffffffffffffffffffffffff16146124db576040517f08c379a000000000000000000000000000000000000000000000000000000000815260040180806020018281038252603481526020018061395f6034913960400191505060405180910390fd5b6005600083815260200190815260200160002060009054906101000a900460ff161561256f576040517f08c379a00000000000000000000000000000000000000000000000000000000081526004018080602001828103825260198152602001807f546f6b656e20697320616c726561647920617070726f7665640000000000000081525060200191505060405180910390fd5b60016005600084815260200190815260200160002060006101000a81548160ff0219169083151502179055503373ffffffffffffffffffffffffffffffffffffffff16600073ffffffffffffffffffffffffffffffffffffffff163373ffffffffffffffffffffffffffffffffffffffff167fc3d58168c5ae7397731d063d5bbf3d657854427343f4c083240f7aacaa2d0f62856002600088815260200190815260200160002060003373ffffffffffffffffffffffffffffffffffffffff1673ffffffffffffffffffffffffffffffffffffffff16815260200190815260200160002054604051808381526020018281526020019250505060405180910390a45050565b60085481565b6000600160009054906101000a900473ffffffffffffffffffffffffffffffffffffffff1673ffffffffffffffffffffffffffffffffffffffff1663a3fac137336040518263ffffffff1660e01b8152600401808273ffffffffffffffffffffffffffffffffffffffff1673ffffffffffffffffffffffffffffffffffffffff16815260200191505060206040518083038186803b15801561271b57600080fd5b505afa15801561272f573d6000803e3d6000fd5b505050506040513d602081101561274557600080fd5b81019080805190602001909291905050506127ab576040517f08c379a0000000000000000000000000000000000000000000000000000000008152600401808060200182810382526026815260200180613b1a6026913960400191505060405180910390fd5b600160009054906101000a900473ffffffffffffffffffffffffffffffffffffffff1673ffffffffffffffffffffffffffffffffffffffff1663b9429069846040518263ffffffff1660e01b8152600401808273ffffffffffffffffffffffffffffffffffffffff1673ffffffffffffffffffffffffffffffffffffffff16815260200191505060206040518083038186803b15801561284a57600080fd5b505afa15801561285e573d6000803e3d6000fd5b505050506040513d602081101561287457600080fd5b81019080805190602001909291905050506128f7576040517f08c379a000000000000000000000000000000000000000000000000000000000815260040180806020018281038252601a8152602001807f526563697069656e74206d7573742062652061206661726d657200000000000081525060200191505060405180910390fd5b6000821161296d576040517f08c379a00000000000000000000000000000000000000000000000000000000081526004018080602001828103825260148152602001807f43616e6e6f74206d696e74203020746f6b656e7300000000000000000000000081525060200191505060405180910390fd5b6008600081546001019190508190559050816002600083815260200190815260200160002060008573ffffffffffffffffffffffffffffffffffffffff1673ffffffffffffffffffffffffffffffffffffffff16815260200190815260200160002081905550826006600083815260200190815260200160002060006101000a81548173ffffffffffffffffffffffffffffffffffffffff021916908373ffffffffffffffffffffffffffffffffffffffff160217905550336004600083815260200190815260200160002060006101000a81548173ffffffffffffffffffffffffffffffffffffffff021916908373ffffffffffffffffffffffffffffffffffffffff16021790555060006005600083815260200190815260200160002060006101000a81548160ff0219169083151502179055506000858590501115612b37578484600760008481526020019081526020016000209190612ad1929190613893565b50807f6bb7ff708619ba0610cba295a58592e0451dee2622938c8755667688daf3529b868660405180806020018281038252848482818152602001925080828437600081840152601f19601f820116905080830192505050935050505060405180910390a25b949350505050565b60046020528060005260406000206000915054906101000a900473ffffffffffffffffffffffffffffffffffffffff1681565b6000600360008473ffffffffffffffffffffffffffffffffffffffff1673ffffffffffffffffffffffffffffffffffffffff16815260200190815260200160002060008373ffffffffffffffffffffffffffffffffffffffff1673ffffffffffffffffffffffffffffffffffffffff16815260200190815260200160002060009054906101000a900460ff16905092915050565b60066020528060005260406000206000915054906101000a900473ffffffffffffffffffffffffffffffffffffffff1681565b83600115156005600083815260200190815260200160002060009054906101000a900460ff16151514612cd4576040517f08c379a00000000000000000000000000000000000000000000000000000000081526004018080602001828103825260188152602001807f546f6b656e2079657420746f20626520617070726f766564000000000000000081525060200191505060405180910390fd5b600073ffffffffffffffffffffffffffffffffffffffff168673ffffffffffffffffffffffffffffffffffffffff161415612d77576040517f08c379a00000000000000000000000000000000000000000000000000000000081526004018080602001828103825260158152602001807f5f746f206d757374206265206e6f6e2d7a65726f2e000000000000000000000081525060200191505060405180910390fd5b3373ffffffffffffffffffffffffffffffffffffffff168773ffffffffffffffffffffffffffffffffffffffff161480612e3e575060011515600360008973ffffffffffffffffffffffffffffffffffffffff1673ffffffffffffffffffffffffffffffffffffffff16815260200190815260200160002060003373ffffffffffffffffffffffffffffffffffffffff1673ffffffffffffffffffffffffffffffffffffffff16815260200190815260200160002060009054906101000a900460ff161515145b612e93576040517f08c379a000000000000000000000000000000000000000000000000000000000815260040180806020018281038252602f815260200180613a1d602f913960400191505060405180910390fd5b612ef6846002600088815260200190815260200160002060008a73ffffffffffffffffffffffffffffffffffffffff1673ffffffffffffffffffffffffffffffffffffffff1681526020019081526020016000205461318b90919063ffffffff16565b6002600087815260200190815260200160002060008973ffffffffffffffffffffffffffffffffffffffff1673ffffffffffffffffffffffffffffffffffffffff16815260200190815260200160002081905550612fad6002600087815260200190815260200160002060008873ffffffffffffffffffffffffffffffffffffffff1673ffffffffffffffffffffffffffffffffffffffff168152602001908152602001600020548561321490919063ffffffff16565b6002600087815260200190815260200160002060008873ffffffffffffffffffffffffffffffffffffffff1673ffffffffffffffffffffffffffffffffffffffff168152602001908152602001600020819055508573ffffffffffffffffffffffffffffffffffffffff168773ffffffffffffffffffffffffffffffffffffffff163373ffffffffffffffffffffffffffffffffffffffff167fc3d58168c5ae7397731d063d5bbf3d657854427343f4c083240f7aacaa2d0f628888604051808381526020018281526020019250505060405180910390a46130a48673ffffffffffffffffffffffffffffffffffffffff1661329c565b156130fc576130fb338888888888888080601f016020809104026020016040519081016040528093929190818152602001838380828437600081840152601f19601f82011690508083019250505050505050613540565b5b50505050505050565b61310d61220d565b61317f576040517f08c379a00000000000000000000000000000000000000000000000000000000081526004018080602001828103825260208152602001807f4f776e61626c653a2063616c6c6572206973206e6f7420746865206f776e657281525060200191505060405180910390fd5b6131888161374f565b50565b600082821115613203576040517f08c379a000000000000000000000000000000000000000000000000000000000815260040180806020018281038252601e8152602001807f536166654d6174683a207375627472616374696f6e206f766572666c6f77000081525060200191505060405180910390fd5b600082840390508091505092915050565b600080828401905083811015613292576040517f08c379a000000000000000000000000000000000000000000000000000000000815260040180806020018281038252601b8152602001807f536166654d6174683a206164646974696f6e206f766572666c6f77000000000081525060200191505060405180910390fd5b8091505092915050565b600080823b905060008111915050919050565b63bc197c8160e01b7bffffffffffffffffffffffffffffffffffffffffffffffffffffffff19168473ffffffffffffffffffffffffffffffffffffffff1663bc197c8188888787876040518663ffffffff1660e01b8152600401808673ffffffffffffffffffffffffffffffffffffffff1673ffffffffffffffffffffffffffffffffffffffff1681526020018573ffffffffffffffffffffffffffffffffffffffff1673ffffffffffffffffffffffffffffffffffffffff168152602001806020018060200180602001848103845287818151815260200191508051906020019060200280838360005b838110156133b557808201518184015260208101905061339a565b50505050905001848103835286818151815260200191508051906020019060200280838360005b838110156133f75780820151818401526020810190506133dc565b50505050905001848103825285818151815260200191508051906020019080838360005b8381101561343657808201518184015260208101905061341b565b50505050905090810190601f1680156134635780820380516001836020036101000a031916815260200191505b5098505050505050505050602060405180830381600087803b15801561348857600080fd5b505af115801561349c573d6000803e3d6000fd5b505050506040513d60208110156134b257600080fd5b81019080805190602001909291905050507bffffffffffffffffffffffffffffffffffffffffffffffffffffffff191614613538576040517f08c379a000000000000000000000000000000000000000000000000000000000815260040180806020018281038252603e815260200180613a4c603e913960400191505060405180910390fd5b505050505050565b63f23a6e6160e01b7bffffffffffffffffffffffffffffffffffffffffffffffffffffffff19168473ffffffffffffffffffffffffffffffffffffffff1663f23a6e6188888787876040518663ffffffff1660e01b8152600401808673ffffffffffffffffffffffffffffffffffffffff1673ffffffffffffffffffffffffffffffffffffffff1681526020018573ffffffffffffffffffffffffffffffffffffffff1673ffffffffffffffffffffffffffffffffffffffff16815260200184815260200183815260200180602001828103825283818151815260200191508051906020019080838360005b8381101561364757808201518184015260208101905061362c565b50505050905090810190601f1680156136745780820380516001836020036101000a031916815260200191505b509650505050505050602060405180830381600087803b15801561369757600080fd5b505af11580156136ab573d6000803e3d6000fd5b505050506040513d60208110156136c157600080fd5b81019080805190602001909291905050507bffffffffffffffffffffffffffffffffffffffffffffffffffffffff191614613747576040517f08c379a0000000000000000000000000000000000000000000000000000000008152600401808060200182810382526039815260200180613b406039913960400191505060405180910390fd5b505050505050565b600073ffffffffffffffffffffffffffffffffffffffff168173ffffffffffffffffffffffffffffffffffffffff1614156137d5576040517f08c379a00000000000000000000000000000000000000000000000000000000081526004018080602001828103825260268152602001806139396026913960400191505060405180910390fd5b8073ffffffffffffffffffffffffffffffffffffffff166000809054906101000a900473ffffffffffffffffffffffffffffffffffffffff1673ffffffffffffffffffffffffffffffffffffffff167f8be0079c531659141344cd1fd0a4f28419497f9722a3daafe3b4186f6b6457e060405160405180910390a3806000806101000a81548173ffffffffffffffffffffffffffffffffffffffff021916908373ffffffffffffffffffffffffffffffffffffffff16021790555050565b828054600181600116156101000203166002900490600052602060002090601f016020900481019282601f106138d457803560ff1916838001178555613902565b82800160010185558215613902579182015b828111156139015782358255916020019190600101906138e6565b5b50905061390f9190613913565b5090565b61393591905b80821115613931576000816000905550600101613919565b5090565b9056fe4f776e61626c653a206e6577206f776e657220697320746865207a65726f20616464726573734f6e6c7920746865206f776e6572206f726967696e616c2062656e65666963696172792063616e2065786563757465207468697364657374696e6174696f6e2061646472657373206d757374206265206e6f6e2d7a65726f2e546865205f696473206172726179206d757374206d6174636820696e206c656e67746820746865206172726179206f66206f776e6572734f6e6c79207468652063726561746f72206f662074686520546f6b656e2063616e206578656375746520746869734e656564206f70657261746f7220617070726f76616c20666f7220337264207061727479207472616e73666572732e636f6e74726163742072657475726e656420616e20756e6b6e6f776e2076616c75652066726f6d206f6e455243313135354261746368526563656976656443616e6e6f742075736520616e20656d7074792055524920666f722074686520746f6b656e206465736372697074696f6e536f6d65206f662074686520746f6b656e732068617665206e6f74206265656e20617070726f76656420666f72206372656174696f6e5f69647320616e64205f76616c756573206172726179206c656e676874206d757374206d617463682e4f6e6c79206120636f6f70657261746976652063616e206d696e74206e657720746f6b656e73636f6e74726163742072657475726e656420616e20756e6b6e6f776e2076616c75652066726f6d206f6e455243313135355265636569766564a265627a7a7230582035eba425e60b0820e09b52e3ffd67f06a8acca2f933232ba6814effe351083bd64736f6c63430005090032",
  "source": "pragma solidity ^0.5.0;\n\nimport \"../node_modules/openzeppelin-solidity/contracts/math/SafeMath.sol\";\nimport \"../node_modules/openzeppelin-solidity/contracts/ownership/Ownable.sol\";\nimport \"./Address.sol\";\nimport \"./Common.sol\";\nimport \"./interfaces/IERC1155TokenReceiver.sol\";\nimport \"./interfaces/IERC1155.sol\";\nimport \"./interfaces/IActor.sol\";\n\n// A sample implementation of core ERC1155 function.\ncontract ERC1155 is IERC1155, ERC165, CommonConstants, Ownable\n{\n    using SafeMath for uint256;\n    using Address for address;\n\n    /// @notice An event emmited when tokens are burned in order to recover coffee from the cooperative.\n    event BurnSingle(address indexed _operator, address indexed _from, uint256 _id, uint256 _value);\n\n    /// @notice The contract which can be queried to know the type of address\n    /// @dev We need to make sure some of the functions are only called by cooperatives or farmers\n    IActor private actorFactory;\n\n    /// @notice The balances of the tokens\n    // id => (owner => balance)\n    mapping (uint256 => mapping(address => uint256)) internal balances;\n\n    /// @notice The permissions an owner has granted to a set of operators to manage their tokens\n    // owner => (operator => approved)\n    mapping (address => mapping(address => bool)) internal operatorApproval;\n\n    bytes4 constant private INTERFACE_SIGNATURE_URI = 0x0e89341c;\n\n    /// @dev The original creators of the token (Should contain only addresses that belong to cooperatives)\n    // id => creators\n    mapping (uint256 => address) public creators;\n\n    /// @notice The state of the approval for the token creation. Until it's approved by the farmer the token cannot be queried or transfered\n    // id => approved\n    mapping (uint256 => bool) public creationApprovals;\n\n    /// @notice The original beneficiary at the token creation.\n    // id => farmer's address\n    mapping (uint256 => address) public beneficiaries;\n\n    /// @notice The uris pointing to the JSON describing the token\n    // id => URI\n    mapping (uint256 => string) public uris;\n\n    // A nonce to ensure we have a unique id each time we mint.\n    uint256 public nonce;\n\n    constructor(IActor _actorFactoryAddress)  public {\n        actorFactory = IActor(_actorFactoryAddress);\n    }\n\n    modifier creatorOnly(uint256 _id) {\n        require(creators[_id] == msg.sender, \"Only the creator of the Token can execute this\");\n        _;\n    }\n\n    modifier beneficiaryOnly(uint256 _id) {\n        require(msg.sender == beneficiaries[_id], \"Only the owner original beneficiary can execute this\");\n        _;\n    }\n\n    modifier onlyIfTokenCreationApproved(uint256 _id) {\n        require(creationApprovals[_id] == true, \"Token yet to be approved\");\n        _;\n    }\n\n    modifier onlyIfTokensCreationApproved(uint256[] memory _ids) {\n        bool allApproved = true;\n        for (uint256 i = 0; i < _ids.length; i++) {\n            bool approved = creationApprovals[_ids[i]];\n            allApproved = allApproved && approved;\n            if (!approved) break;\n        }\n\n        require(allApproved, \"Some of the tokens have not been approved for creation\");\n        _;\n    }\n\n    /** @notice Sets the address of the ActorFactory\n      * @param _actorFactoryAddress address of the IActor\n      * @dev Only Owner can set the ActorFactory contract, it helps when the Actor Factory migrates\n      */\n\n    function setIActorAddress(IActor _actorFactoryAddress) public onlyOwner{\n        actorFactory = IActor(_actorFactoryAddress);\n    }\n\n    /**\n        @notice Creates the new token for the address in _recipient to approve it. The token cannot be used it until it's approved.\n        @param _initialSupply The amount of tokens to mint for this new type\n        @param _uri The URI pointing to the JSON (it must conforms to the \"ERC-1155 Metadata URI JSON Schema\".)\n        @return The id of the newly created token\n    */\n    function create(string calldata _uri, address _recipient, uint256 _initialSupply) external returns(uint256 _id) {\n        require(actorFactory.isCooperative(msg.sender), \"Only a cooperative can mint new tokens\");\n        require(actorFactory.isFarmer(_recipient), \"Recipient must be a farmer\");\n        require(_initialSupply > 0, \"Cannot mint 0 tokens\");\n        // require(_recipient != address(0x0), \"_recipient cannot be address 0x0\");\n        _id = ++nonce;\n        balances[_id][_recipient] = _initialSupply;\n        beneficiaries[_id] = _recipient;\n        creators[_id] = msg.sender;\n        creationApprovals[_id] = false;\n\n        if (bytes(_uri).length > 0) {\n            uris[_id] = _uri;\n            emit URI(_uri, _id);\n        }\n    }\n\n    /**\n        @notice Recieves an amount of tokens of a given type to be burned. A token that is burned becomes unusable and\n        it means the sender will receive coffee in return.\n        @dev The balance of the _from address must be equal or greater than the amount specified and the _id must belong to a previously created token (approved creation).\n        @param _id The id of the token to be burned.\n        @param _amount The amount of tokens to be burned.\n        @param _from The address from which the tokens will be burned\n     */\n    function burn(uint256 _id, uint256 _amount, address _from) external onlyIfTokenCreationApproved(_id) {\n        require(_amount > 0, \"You can't burn 0 tokens\");\n        require(msg.sender == _from || operatorApproval[_from][msg.sender] == true, \"Need operator approval for 3rd party transfers.\");\n\n        balances[_id][_from] = balances[_id][_from].sub(_amount);\n\n        emit BurnSingle(msg.sender, _from, _id, _amount);\n    }\n\n    /**\n        @notice Approves a previously created token to be used. The only user allowed to approve the token creation is the original coffe owner.\n        @param _id The id of the token to be approved\n     */\n    function approveTokenCreation(uint256 _id) external beneficiaryOnly(_id) {\n        require(!creationApprovals[_id], \"Token is already approved\");\n        // Transfer event with mint semantic\n        creationApprovals[_id] = true;\n        emit TransferSingle(msg.sender, address(0x0), msg.sender, _id, balances[_id][msg.sender]);\n    }\n\n    function setURI(string calldata _uri, uint256 _id) external creatorOnly(_id) {\n        require(bytes(_uri).length > 0, \"Cannot use an empty URI for the token description\");\n        uris[_id] = _uri;\n        emit URI(_uri, _id);\n    }\n\n    /**\n        @notice Returns an array containing all the ids of the tokens this address has a positive balance and have been approved already.\n        This is intended to be used to show al the tokens available for this address at once without maintaining the ids stored somewhere else.\n        @dev Looking for better ways to do this, it can change in the future.\n        @param _address The address to get the tokens\n        @return An array containing the ids of the tokens\n     */\n    function getTokensWithBalance(address _address) external view returns(uint256[] memory) {\n        uint256[] memory allTokens = new uint256[](nonce);\n        uint256 tokenCount = 0;\n\n        for (uint256 i = 0; i <= nonce; i++) {\n            if (balances[i][_address] > 0 && creationApprovals[i]) {\n                allTokens[tokenCount++] = i;\n            }\n        }\n\n        uint256[] memory tokenIds = new uint256[](tokenCount);\n        for (uint i = 0; i < tokenCount; i++) {\n            tokenIds[i] = allTokens[i];\n        }\n\n        return tokenIds;\n    }\n\n    /**\n        @notice Returns an array containing all the ids of the tokens this account has not yet approved.\n        This is intended to be used to show al the tokens available for this address at once without maintaining the ids stored somewhere else.\n        @dev Looking for better ways to do this, it can change in the future.\n        @param _address The address to get the tokens\n        @return An array containing the ids of the tokens yet to be approved.\n     */\n    function getUnapprovedTokensWithBalance(address _address) external view returns(uint256[] memory) {\n        uint256[] memory allTokens = new uint256[](nonce);\n        uint256 tokenCount = 0;\n\n        for (uint256 i = 0; i <= nonce; i++) {\n            if (balances[i][_address] > 0 && creationApprovals[i] == false) {\n                allTokens[tokenCount++] = i;\n            }\n        }\n\n        uint256[] memory tokenIds = new uint256[](tokenCount);\n        for (uint i = 0; i < tokenCount; i++) {\n            tokenIds[i] = allTokens[i];\n        }\n\n        return tokenIds;\n    }\n\n    function getActorFactoryAddress() public view returns(address){\n        return address(actorFactory);\n     }\n/////////////////////////////////////////// ERC165 //////////////////////////////////////////////\n\n    /*\n        bytes4(keccak256('supportsInterface(bytes4)'));\n    */\n    bytes4 constant private INTERFACE_SIGNATURE_ERC165 = 0x01ffc9a7;\n\n    /*\n        bytes4(keccak256(\"safeTransferFrom(address,address,uint256,uint256,bytes)\")) ^\n        bytes4(keccak256(\"safeBatchTransferFrom(address,address,uint256[],uint256[],bytes)\")) ^\n        bytes4(keccak256(\"balanceOf(address,uint256)\")) ^\n        bytes4(keccak256(\"balanceOfBatch(address[],uint256[])\")) ^\n        bytes4(keccak256(\"setApprovalForAll(address,bool)\")) ^\n        bytes4(keccak256(\"isApprovedForAll(address,address)\"));\n    */\n    bytes4 constant private INTERFACE_SIGNATURE_ERC1155 = 0xd9b67a26;\n\n    function supportsInterface(bytes4 _interfaceId)\n    public\n    view\n    returns (bool) {\n        if (_interfaceId == INTERFACE_SIGNATURE_URI) {\n            return true;\n        }\n\n        if (_interfaceId == INTERFACE_SIGNATURE_ERC165 ||\n             _interfaceId == INTERFACE_SIGNATURE_ERC1155) {\n            return true;\n        }\n\n        return false;\n    }\n\n/////////////////////////////////////////// ERC1155 //////////////////////////////////////////////\n\n    /**\n        @notice Transfers `_value` amount of an `_id` from the `_from` address to the `_to` address specified (with safety call).\n        @dev Caller must be approved to manage the tokens being transferred out of the `_from` account (see \"Approval\" section of the standard).\n        MUST revert if `_to` is the zero address.\n        MUST revert if balance of holder for token `_id` is lower than the `_value` sent.\n        MUST revert on any other error.\n        MUST emit the `TransferSingle` event to reflect the balance change (see \"Safe Transfer Rules\" section of the standard).\n        After the above conditions are met, this function MUST check if `_to` is a smart contract (e.g. code size > 0). If so, it MUST call `onERC1155Received` on `_to` and act appropriately (see \"Safe Transfer Rules\" section of the standard).\n        @param _from    Source address\n        @param _to      Target address\n        @param _id      ID of the token type\n        @param _value   Transfer amount\n        @param _data    Additional data with no specified format, MUST be sent unaltered in call to `onERC1155Received` on `_to`\n    */\n    function safeTransferFrom(\n        address _from,\n        address _to,\n        uint256 _id,\n        uint256 _value,\n        bytes calldata _data\n    ) external onlyIfTokenCreationApproved(_id) {\n\n        require(_to != address(0x0), \"_to must be non-zero.\");\n        require(_from == msg.sender || operatorApproval[_from][msg.sender] == true, \"Need operator approval for 3rd party transfers.\");\n\n        // SafeMath will throw with insuficient funds _from\n        // or if _id is not valid (balance will be 0)\n        balances[_id][_from] = balances[_id][_from].sub(_value);\n        balances[_id][_to] = _value.add(balances[_id][_to]);\n\n        // MUST emit event\n        emit TransferSingle(msg.sender, _from, _to, _id, _value);\n\n        // Now that the balance is updated and the event was emitted,\n        // call onERC1155Received if the destination is a contract.\n        if (_to.isContract()) {\n            _doSafeTransferAcceptanceCheck(msg.sender, _from, _to, _id, _value, _data);\n        }\n    }\n\n    /**\n        @notice Transfers `_values` amount(s) of `_ids` from the `_from` address to the `_to` address specified (with safety call).\n        @dev Caller must be approved to manage the tokens being transferred out of the `_from` account (see \"Approval\" section of the standard).\n        MUST revert if `_to` is the zero address.\n        MUST revert if length of `_ids` is not the same as length of `_values`.\n        MUST revert if any of the balance(s) of the holder(s) for token(s) in `_ids` is lower than the respective amount(s) in `_values` sent to the recipient.\n        MUST revert on any other error.\n        MUST emit `TransferSingle` or `TransferBatch` event(s) such that all the balance changes are reflected (see \"Safe Transfer Rules\" section of the standard).\n        Balance changes and events MUST follow the ordering of the arrays (_ids[0]/_values[0] before _ids[1]/_values[1], etc).\n        After the above conditions for the transfer(s) in the batch are met, this function MUST check if `_to` is a smart contract (e.g. code size > 0). If so, it MUST call the relevant `ERC1155TokenReceiver` hook(s) on `_to` and act appropriately (see \"Safe Transfer Rules\" section of the standard).\n        @param _from    Source address\n        @param _to      Target address\n        @param _ids     IDs of each token type (order and length must match _values array)\n        @param _values  Transfer amounts per token type (order and length must match _ids array)\n        @param _data    Additional data with no specified format, MUST be sent unaltered in call to the `ERC1155TokenReceiver` hook(s) on `_to`\n    */\n    function safeBatchTransferFrom(\n        address _from,\n        address _to,\n        uint256[] calldata _ids,\n        uint256[] calldata _values,\n        bytes calldata _data) external onlyIfTokensCreationApproved(_ids) {\n\n        // MUST Throw on errors\n        require(_to != address(0x0), \"destination address must be non-zero.\");\n        require(_ids.length == _values.length, \"_ids and _values array lenght must match.\");\n        require(_from == msg.sender || operatorApproval[_from][msg.sender] == true, \"Need operator approval for 3rd party transfers.\");\n\n        for (uint256 i = 0; i < _ids.length; ++i) {\n            uint256 value = _values[i];\n\n            // SafeMath will throw with insuficient funds _from\n            // or if _id is not valid (balance will be 0)\n            balances[_ids[i]][_from] = balances[_ids[i]][_from].sub(value);\n            balances[_ids[i]][_to] = value.add(balances[_ids[i]][_to]);\n        }\n\n        // Note: instead of the below batch versions of event and acceptance check you MAY have emitted a TransferSingle\n        // event and a subsequent call to _doSafeTransferAcceptanceCheck in above loop for each balance change instead.\n        // Or emitted a TransferSingle event for each in the loop and then the single _doSafeBatchTransferAcceptanceCheck below.\n        // However it is implemented the balance changes and events MUST match when a check (i.e. calling an external contract) is done.\n\n        // MUST emit event\n        emit TransferBatch(msg.sender, _from, _to, _ids, _values);\n\n        // Now that the balances are updated and the events are emitted,\n        // call onERC1155BatchReceived if the destination is a contract.\n        if (_to.isContract()) {\n            _doSafeBatchTransferAcceptanceCheck(msg.sender, _from, _to, _ids, _values, _data);\n        }\n    }\n\n    /**\n        @notice Get the balance of an account's Tokens.\n        @param _owner  The address of the token holder\n        @param _id     ID of the Token\n        @return        The _owner's balance of the Token type requested\n     */\n    function balanceOf(address _owner, uint256 _id) external view onlyIfTokenCreationApproved(_id) returns (uint256) {\n        // The balance of any account can be calculated from the Transfer events history.\n        // However, since we need to keep the balances to validate transfer request,\n        // there is no extra cost to also privide a querry function.\n        return balances[_id][_owner];\n    }\n\n\n    /**\n        @notice Get the balance of multiple account/token pairs\n        @param _owners The addresses of the token holders\n        @param _ids    ID of the Tokens\n        @return        The _owner's balance of the Token types requested (i.e. balance for each (owner, id) pair)\n     */\n    function balanceOfBatch(address[] calldata _owners, uint256[] calldata _ids)\n    external view onlyIfTokensCreationApproved(_ids) returns (uint256[] memory) {\n        require(_owners.length == _ids.length, \"The _ids array must match in length the array of owners\");\n        uint256[] memory balances_ = new uint256[](_owners.length);\n        for (uint256 i = 0; i < _owners.length; ++i) {\n            balances_[i] = balances[_ids[i]][_owners[i]];\n        }\n        return balances_;\n    }\n\n    /**\n        @notice Enable or disable approval for a third party (\"operator\") to manage all of the caller's tokens.\n        @dev MUST emit the ApprovalForAll event on success.\n        @param _operator  Address to add to the set of authorized operators\n        @param _approved  True if the operator is approved, false to revoke approval\n    */\n    function setApprovalForAll(address _operator, bool _approved) external {\n        operatorApproval[msg.sender][_operator] = _approved;\n        emit ApprovalForAll(msg.sender, _operator, _approved);\n    }\n\n    /**\n        @notice Queries the approval status of an operator for a given owner.\n        @param _owner     The owner of the Tokens\n        @param _operator  Address of authorized operator\n        @return           True if the operator is approved, false if not\n    */\n    function isApprovedForAll(address _owner, address _operator) external view returns (bool) {\n        return operatorApproval[_owner][_operator];\n    }\n\n/////////////////////////////////////////// Internal //////////////////////////////////////////////\n\n    function _doSafeTransferAcceptanceCheck(\n        address _operator,\n        address _from,\n        address _to,\n        uint256 _id,\n        uint256 _value,\n        bytes memory _data\n    ) internal {\n        // If this was a hybrid standards solution you would have to check ERC165(_to).supportsInterface(0x4e2312e0) here but as this is a pure implementation of an ERC-1155 token set as recommended by\n        // the standard, it is not necessary. The below should revert in all failure cases i.e. _to isn't a receiver, or it is and either returns an unknown value or it reverts in the call to indicate non-acceptance.\n        // Note: if the below reverts in the onERC1155Received function of the _to address you will have an undefined revert reason returned rather than the one in the require test.\n        // If you want predictable revert reasons consider using low level _to.call() style instead so the revert does not bubble up and you can revert yourself on the ERC1155_ACCEPTED test.\n        require(ERC1155TokenReceiver(_to).onERC1155Received(\n            _operator,\n            _from,\n            _id,\n            _value,\n            _data\n        ) == ERC1155_ACCEPTED, \"contract returned an unknown value from onERC1155Received\");\n    }\n\n    function _doSafeBatchTransferAcceptanceCheck(\n        address _operator,\n        address _from,\n        address _to,\n        uint256[] memory _ids,\n        uint256[] memory _values,\n        bytes memory _data\n    ) internal {\n        // If this was a hybrid standards solution you would have to check ERC165(_to).supportsInterface(0x4e2312e0) here but as this is a pure implementation of an ERC-1155 token set as recommended by\n        // the standard, it is not necessary. The below should revert in all failure cases i.e. _to isn't a receiver, or it is and either returns an unknown value or it reverts in the call to indicate non-acceptance.\n        // Note: if the below reverts in the onERC1155BatchReceived function of the _to address you will have an undefined revert reason returned rather than the one in the require test.\n        // If you want predictable revert reasons consider using low level _to.call() style instead so the revert does not bubble up and you can revert yourself on the ERC1155_BATCH_ACCEPTED test.\n        require(ERC1155TokenReceiver(_to).onERC1155BatchReceived(\n            _operator,\n            _from,\n            _ids,\n            _values,\n            _data\n        ) == ERC1155_BATCH_ACCEPTED, \"contract returned an unknown value from onERC1155BatchReceived\");\n    }\n}\n",
  "sourcePath": "/Users/oscarr/Ethereum/wrapped_coffee_coin/contracts/ERC1155.sol",
  "compiler": {
    "name": "solc",
    "version": "0.5.9+commit.e560f70d.Emscripten.clang"
  },
  "schemaVersion": "3.0.14",
  "updatedAt": "2019-09-09T01:56:30.876Z",
  "devdoc": {
    "methods": {
      "approveTokenCreation(uint256)": {
        "params": {
          "_id": "The id of the token to be approved"
        }
      },
      "balanceOf(address,uint256)": {
        "params": {
          "_id": "ID of the Token",
          "_owner": "The address of the token holder"
        },
        "return": "The _owner's balance of the Token type requested"
      },
      "balanceOfBatch(address[],uint256[])": {
        "params": {
          "_ids": "ID of the Tokens",
          "_owners": "The addresses of the token holders"
        },
        "return": "The _owner's balance of the Token types requested (i.e. balance for each (owner, id) pair)"
      },
      "burn(uint256,uint256,address)": {
        "details": "The balance of the _from address must be equal or greater than the amount specified and the _id must belong to a previously created token (approved creation).",
        "params": {
          "_amount": "The amount of tokens to be burned.",
          "_from": "The address from which the tokens will be burned",
          "_id": "The id of the token to be burned."
        }
      },
      "create(string,address,uint256)": {
        "params": {
          "_initialSupply": "The amount of tokens to mint for this new type",
          "_uri": "The URI pointing to the JSON (it must conforms to the \"ERC-1155 Metadata URI JSON Schema\".)"
        },
        "return": "The id of the newly created token"
      },
      "getTokensWithBalance(address)": {
        "details": "Looking for better ways to do this, it can change in the future.",
        "params": {
          "_address": "The address to get the tokens"
        },
        "return": "An array containing the ids of the tokens"
      },
      "getUnapprovedTokensWithBalance(address)": {
        "details": "Looking for better ways to do this, it can change in the future.",
        "params": {
          "_address": "The address to get the tokens"
        },
        "return": "An array containing the ids of the tokens yet to be approved."
      },
      "isApprovedForAll(address,address)": {
        "params": {
          "_operator": "Address of authorized operator",
          "_owner": "The owner of the Tokens"
        },
        "return": "True if the operator is approved, false if not"
      },
      "isOwner()": {
        "details": "Returns true if the caller is the current owner."
      },
      "owner()": {
        "details": "Returns the address of the current owner."
      },
      "renounceOwnership()": {
        "details": "Leaves the contract without owner. It will not be possible to call `onlyOwner` functions anymore. Can only be called by the current owner.     * > Note: Renouncing ownership will leave the contract without an owner, thereby removing any functionality that is only available to the owner."
      },
      "safeBatchTransferFrom(address,address,uint256[],uint256[],bytes)": {
        "details": "Caller must be approved to manage the tokens being transferred out of the `_from` account (see \"Approval\" section of the standard). MUST revert if `_to` is the zero address. MUST revert if length of `_ids` is not the same as length of `_values`. MUST revert if any of the balance(s) of the holder(s) for token(s) in `_ids` is lower than the respective amount(s) in `_values` sent to the recipient. MUST revert on any other error. MUST emit `TransferSingle` or `TransferBatch` event(s) such that all the balance changes are reflected (see \"Safe Transfer Rules\" section of the standard). Balance changes and events MUST follow the ordering of the arrays (_ids[0]/_values[0] before _ids[1]/_values[1], etc). After the above conditions for the transfer(s) in the batch are met, this function MUST check if `_to` is a smart contract (e.g. code size > 0). If so, it MUST call the relevant `ERC1155TokenReceiver` hook(s) on `_to` and act appropriately (see \"Safe Transfer Rules\" section of the standard).",
        "params": {
          "_data": "Additional data with no specified format, MUST be sent unaltered in call to the `ERC1155TokenReceiver` hook(s) on `_to`",
          "_from": "Source address",
          "_ids": "IDs of each token type (order and length must match _values array)",
          "_to": "Target address",
          "_values": "Transfer amounts per token type (order and length must match _ids array)"
        }
      },
      "safeTransferFrom(address,address,uint256,uint256,bytes)": {
        "details": "Caller must be approved to manage the tokens being transferred out of the `_from` account (see \"Approval\" section of the standard). MUST revert if `_to` is the zero address. MUST revert if balance of holder for token `_id` is lower than the `_value` sent. MUST revert on any other error. MUST emit the `TransferSingle` event to reflect the balance change (see \"Safe Transfer Rules\" section of the standard). After the above conditions are met, this function MUST check if `_to` is a smart contract (e.g. code size > 0). If so, it MUST call `onERC1155Received` on `_to` and act appropriately (see \"Safe Transfer Rules\" section of the standard).",
        "params": {
          "_data": "Additional data with no specified format, MUST be sent unaltered in call to `onERC1155Received` on `_to`",
          "_from": "Source address",
          "_id": "ID of the token type",
          "_to": "Target address",
          "_value": "Transfer amount"
        }
      },
      "setApprovalForAll(address,bool)": {
        "details": "MUST emit the ApprovalForAll event on success.",
        "params": {
          "_approved": "True if the operator is approved, false to revoke approval",
          "_operator": "Address to add to the set of authorized operators"
        }
      },
      "setIActorAddress(address)": {
        "details": "Only Owner can set the ActorFactory contract, it helps when the Actor Factory migrates",
        "params": {
          "_actorFactoryAddress": "address of the IActor"
        }
      },
      "transferOwnership(address)": {
        "details": "Transfers ownership of the contract to a new account (`newOwner`). Can only be called by the current owner."
      }
    }
  },
  "userdoc": {
    "methods": {
      "approveTokenCreation(uint256)": {
        "notice": "Approves a previously created token to be used. The only user allowed to approve the token creation is the original coffe owner."
      },
      "balanceOf(address,uint256)": {
        "notice": "Get the balance of an account's Tokens."
      },
      "balanceOfBatch(address[],uint256[])": {
        "notice": "Get the balance of multiple account/token pairs"
      },
      "burn(uint256,uint256,address)": {
        "notice": "Recieves an amount of tokens of a given type to be burned. A token that is burned becomes unusable and it means the sender will receive coffee in return."
      },
      "create(string,address,uint256)": {
        "notice": "Creates the new token for the address in _recipient to approve it. The token cannot be used it until it's approved."
      },
      "getTokensWithBalance(address)": {
        "notice": "Returns an array containing all the ids of the tokens this address has a positive balance and have been approved already. This is intended to be used to show al the tokens available for this address at once without maintaining the ids stored somewhere else."
      },
      "getUnapprovedTokensWithBalance(address)": {
        "notice": "Returns an array containing all the ids of the tokens this account has not yet approved. This is intended to be used to show al the tokens available for this address at once without maintaining the ids stored somewhere else."
      },
      "isApprovedForAll(address,address)": {
        "notice": "Queries the approval status of an operator for a given owner."
      },
      "safeBatchTransferFrom(address,address,uint256[],uint256[],bytes)": {
        "notice": "Transfers `_values` amount(s) of `_ids` from the `_from` address to the `_to` address specified (with safety call)."
      },
      "safeTransferFrom(address,address,uint256,uint256,bytes)": {
        "notice": "Transfers `_value` amount of an `_id` from the `_from` address to the `_to` address specified (with safety call)."
      },
      "setApprovalForAll(address,bool)": {
        "notice": "Enable or disable approval for a third party (\"operator\") to manage all of the caller's tokens."
      },
      "setIActorAddress(address)": {
        "notice": "Sets the address of the ActorFactory"
      }
    }
  }
}