{
  "contractName": "StubActorFactory",
  "abi": [
    {
      "anonymous": false,
      "inputs": [
        {
          "indexed": false,
          "name": "_actorAddress",
          "type": "address"
        },
        {
          "indexed": false,
          "name": "_role",
          "type": "bytes32"
        }
      ],
      "name": "LogAddActor",
      "type": "event"
    },
    {
      "anonymous": false,
      "inputs": [
        {
          "indexed": false,
          "name": "_cooperativeAddress",
          "type": "address"
        },
        {
          "indexed": false,
          "name": "_actorAddress",
          "type": "address"
        },
        {
          "indexed": false,
          "name": "_role",
          "type": "bytes32"
        }
      ],
      "name": "LogCooperativeAddActor",
      "type": "event"
    },
    {
      "anonymous": false,
      "inputs": [
        {
          "indexed": false,
          "name": "_actorAddress",
          "type": "address"
        }
      ],
      "name": "LogDestroyActor",
      "type": "event"
    },
    {
      "anonymous": false,
      "inputs": [
        {
          "indexed": false,
          "name": "_cooperativeAddress",
          "type": "address"
        },
        {
          "indexed": false,
          "name": "_actorAddress",
          "type": "address"
        }
      ],
      "name": "LogCooperativeDestroyActor",
      "type": "event"
    },
    {
      "anonymous": false,
      "inputs": [
        {
          "indexed": true,
          "name": "_owner",
          "type": "address"
        },
        {
          "indexed": true,
          "name": "_allowed",
          "type": "address"
        },
        {
          "indexed": false,
          "name": "_value",
          "type": "bool"
        }
      ],
      "name": "LogApproval",
      "type": "event"
    },
    {
      "anonymous": false,
      "inputs": [
        {
          "indexed": true,
          "name": "_owner",
          "type": "address"
        },
        {
          "indexed": true,
          "name": "_allowed",
          "type": "address"
        },
        {
          "indexed": false,
          "name": "_value",
          "type": "bool"
        },
        {
          "indexed": false,
          "name": "_cooperativeAddress",
          "type": "address"
        }
      ],
      "name": "LogCooperativeApproval",
      "type": "event"
    },
    {
      "constant": true,
      "inputs": [
        {
          "name": "_owner",
          "type": "address"
        }
      ],
      "name": "getAccountType",
      "outputs": [
        {
          "name": "",
          "type": "bytes32"
        }
      ],
      "payable": false,
      "stateMutability": "view",
      "type": "function"
    },
    {
      "constant": true,
      "inputs": [],
      "name": "getSenderRole",
      "outputs": [
        {
          "name": "",
          "type": "bytes32"
        }
      ],
      "payable": false,
      "stateMutability": "view",
      "type": "function"
    },
    {
      "constant": true,
      "inputs": [
        {
          "name": "_actorAddress",
          "type": "address"
        }
      ],
      "name": "actorExists",
      "outputs": [
        {
          "name": "",
          "type": "bool"
        }
      ],
      "payable": false,
      "stateMutability": "view",
      "type": "function"
    },
    {
      "constant": true,
      "inputs": [
        {
          "name": "_allower",
          "type": "address"
        },
        {
          "name": "_allowed",
          "type": "address"
        }
      ],
      "name": "isAllowed",
      "outputs": [
        {
          "name": "",
          "type": "bool"
        }
      ],
      "payable": false,
      "stateMutability": "view",
      "type": "function"
    },
    {
      "constant": false,
      "inputs": [
        {
          "name": "_role",
          "type": "bytes32"
        }
      ],
      "name": "addActor",
      "outputs": [],
      "payable": false,
      "stateMutability": "nonpayable",
      "type": "function"
    },
    {
      "constant": false,
      "inputs": [
        {
          "name": "_role",
          "type": "bytes32"
        },
        {
          "name": "_actorAddress",
          "type": "address"
        }
      ],
      "name": "cooperativeAddActor",
      "outputs": [],
      "payable": false,
      "stateMutability": "nonpayable",
      "type": "function"
    },
    {
      "constant": false,
      "inputs": [
        {
          "name": "_allowed",
          "type": "address"
        },
        {
          "name": "_value",
          "type": "bool"
        }
      ],
      "name": "approve",
      "outputs": [
        {
          "name": "",
          "type": "bool"
        }
      ],
      "payable": false,
      "stateMutability": "nonpayable",
      "type": "function"
    },
    {
      "constant": false,
      "inputs": [
        {
          "name": "_allower",
          "type": "address"
        },
        {
          "name": "_allowed",
          "type": "address"
        },
        {
          "name": "_value",
          "type": "bool"
        }
      ],
      "name": "cooperativeApprove",
      "outputs": [
        {
          "name": "",
          "type": "bool"
        }
      ],
      "payable": false,
      "stateMutability": "nonpayable",
      "type": "function"
    },
    {
      "constant": false,
      "inputs": [],
      "name": "destroyActor",
      "outputs": [],
      "payable": false,
      "stateMutability": "nonpayable",
      "type": "function"
    },
    {
      "constant": false,
      "inputs": [
        {
          "name": "_actorAddress",
          "type": "address"
        }
      ],
      "name": "cooperativeDestroyActor",
      "outputs": [],
      "payable": false,
      "stateMutability": "nonpayable",
      "type": "function"
    },
    {
      "constant": true,
      "inputs": [
        {
          "name": "_cooperative",
          "type": "address"
        }
      ],
      "name": "isCooperative",
      "outputs": [
        {
          "name": "",
          "type": "bool"
        }
      ],
      "payable": false,
      "stateMutability": "view",
      "type": "function"
    },
    {
      "constant": true,
      "inputs": [
        {
          "name": "_farmer",
          "type": "address"
        }
      ],
      "name": "isFarmer",
      "outputs": [
        {
          "name": "",
          "type": "bool"
        }
      ],
      "payable": false,
      "stateMutability": "view",
      "type": "function"
    },
    {
      "constant": true,
      "inputs": [
        {
          "name": "_accountAddress",
          "type": "address"
        }
      ],
      "name": "isCertifier",
      "outputs": [
        {
          "name": "",
          "type": "bool"
        }
      ],
      "payable": false,
      "stateMutability": "view",
      "type": "function"
    },
    {
      "constant": true,
      "inputs": [
        {
          "name": "_accountAddress",
          "type": "address"
        }
      ],
      "name": "isTechnician",
      "outputs": [
        {
          "name": "",
          "type": "bool"
        }
      ],
      "payable": false,
      "stateMutability": "view",
      "type": "function"
    },
    {
      "constant": true,
      "inputs": [
        {
          "name": "_accountAddress",
          "type": "address"
        }
      ],
      "name": "isTaster",
      "outputs": [
        {
          "name": "",
          "type": "bool"
        }
      ],
      "payable": false,
      "stateMutability": "view",
      "type": "function"
    },
    {
      "constant": true,
      "inputs": [
        {
          "name": "_accountAddress",
          "type": "address"
        }
      ],
      "name": "isValidator",
      "outputs": [
        {
          "name": "",
          "type": "bool"
        }
      ],
      "payable": false,
      "stateMutability": "view",
      "type": "function"
    },
    {
      "constant": true,
      "inputs": [
        {
          "name": "_accountAddress",
          "type": "address"
        }
      ],
      "name": "isBenefit",
      "outputs": [
        {
          "name": "",
          "type": "bool"
        }
      ],
      "payable": false,
      "stateMutability": "view",
      "type": "function"
    },
    {
      "constant": true,
      "inputs": [
        {
          "name": "_accountAddress",
          "type": "address"
        }
      ],
      "name": "isRoaster",
      "outputs": [
        {
          "name": "",
          "type": "bool"
        }
      ],
      "payable": false,
      "stateMutability": "view",
      "type": "function"
    }
  ],
  "bytecode": "0x608060405234801561001057600080fd5b5061081e806100206000396000f3fe608060405234801561001057600080fd5b50600436106101165760003560e01c80638920641d116100a2578063b942906911610071578063b942906914610519578063ea535ab114610575578063f6605b07146105c3578063f9338f031461061f578063facd743b146106a757610116565b80638920641d146103bb578063a1654379146103e9578063a3fac13714610465578063ae203146146104c157610116565b80633d140d21116100e95780633d140d211461024d5780636a4cd338146102b55780636db5a1c31461031157806382f34e3a146103555780638793ca55146103b157610116565b80630f5b76fa1461011b57806316ce5b85146101775780631c2353e1146101d35780633a88162e1461022f575b600080fd5b61015d6004803603602081101561013157600080fd5b81019080803573ffffffffffffffffffffffffffffffffffffffff169060200190929190505050610703565b604051808215151515815260200191505060405180910390f35b6101b96004803603602081101561018d57600080fd5b81019080803573ffffffffffffffffffffffffffffffffffffffff16906020019092919050505061070e565b604051808215151515815260200191505060405180910390f35b610215600480360360208110156101e957600080fd5b81019080803573ffffffffffffffffffffffffffffffffffffffff169060200190929190505050610719565b604051808215151515815260200191505060405180910390f35b610237610724565b6040518082815260200191505060405180910390f35b61029b6004803603604081101561026357600080fd5b81019080803573ffffffffffffffffffffffffffffffffffffffff16906020019092919080351515906020019092919050505061074c565b604051808215151515815260200191505060405180910390f35b6102f7600480360360208110156102cb57600080fd5b81019080803573ffffffffffffffffffffffffffffffffffffffff169060200190929190505050610758565b604051808215151515815260200191505060405180910390f35b6103536004803603602081101561032757600080fd5b81019080803573ffffffffffffffffffffffffffffffffffffffff169060200190929190505050610763565b005b6103976004803603602081101561036b57600080fd5b81019080803573ffffffffffffffffffffffffffffffffffffffff169060200190929190505050610766565b604051808215151515815260200191505060405180910390f35b6103b9610771565b005b6103e7600480360360208110156103d157600080fd5b8101908080359060200190929190505050610773565b005b61044b600480360360408110156103ff57600080fd5b81019080803573ffffffffffffffffffffffffffffffffffffffff169060200190929190803573ffffffffffffffffffffffffffffffffffffffff169060200190929190505050610776565b604051808215151515815260200191505060405180910390f35b6104a76004803603602081101561047b57600080fd5b81019080803573ffffffffffffffffffffffffffffffffffffffff169060200190929190505050610782565b604051808215151515815260200191505060405180910390f35b610503600480360360208110156104d757600080fd5b81019080803573ffffffffffffffffffffffffffffffffffffffff16906020019092919050505061078d565b6040518082815260200191505060405180910390f35b61055b6004803603602081101561052f57600080fd5b81019080803573ffffffffffffffffffffffffffffffffffffffff1690602001909291905050506107b7565b604051808215151515815260200191505060405180910390f35b6105c16004803603604081101561058b57600080fd5b8101908080359060200190929190803573ffffffffffffffffffffffffffffffffffffffff1690602001909291905050506107c2565b005b610605600480360360208110156105d957600080fd5b81019080803573ffffffffffffffffffffffffffffffffffffffff1690602001909291905050506107c6565b604051808215151515815260200191505060405180910390f35b61068d6004803603606081101561063557600080fd5b81019080803573ffffffffffffffffffffffffffffffffffffffff169060200190929190803573ffffffffffffffffffffffffffffffffffffffff1690602001909291908035151590602001909291905050506107d1565b604051808215151515815260200191505060405180910390f35b6106e9600480360360208110156106bd57600080fd5b81019080803573ffffffffffffffffffffffffffffffffffffffff1690602001909291905050506107de565b604051808215151515815260200191505060405180910390f35b600060019050919050565b600060019050919050565b600060019050919050565b60007f434f4f5045524154495645000000000000000000000000000000000000000000905090565b60006001905092915050565b600060019050919050565b50565b600060019050919050565b565b50565b60006001905092915050565b600060019050919050565b60007f4641524d455200000000000000000000000000000000000000000000000000009050919050565b600060019050919050565b5050565b600060019050919050565b6000600190509392505050565b60006001905091905056fea265627a7a72305820161d63d28305826a9e2fd9d68379bbbe07133031932a5f7ad460e915cdbc9a7364736f6c63430005090032",
  "source": "pragma solidity ^0.5.9;\n\nimport \"./interfaces/IActor.sol\";\n\ncontract StubActorFactory is IActor {\n    /** @notice Gets the type of the account.\n      * @param _owner address of the owner.\n      * @return returns a bytes32 with the type of account or empty if there is no account\n      */\n    function getAccountType(address _owner) external view returns (bytes32) {\n        return \"FARMER\";\n    }\n\n    /** @notice Gets the type of the sender account.\n      * @return returns a bytes32 with the type of account or empty if there is no account\n      */\n    function getSenderRole() external view returns (bytes32) {\n        return \"COOPERATIVE\";\n    }\n\n    /** @notice checks if an actor exists\n      * @param _actorAddress address of actor to check\n      * @return true if is exists false if not\n      */\n    function actorExists(address _actorAddress) external view returns(bool) {\n        return true;\n    }\n\n    /** @notice Checks if a user has permission from another user.\n      * @param _allower address of the allower.\n      * @param _allowed address of the actor to check if has permission.\n      * @return returns true if _allowed has permission, false otherwise.\n      */\n    function isAllowed(address _allower, address _allowed) external view returns (bool) {\n        return true;\n    }\n\n    /** @notice creates a new actor from sender\n      * @param _role type of account of the actor.\n      */\n    function addActor(bytes32 _role) external {\n        // NO OP\n    }\n\n    /** @notice Cooperative creates new actor\n      * @param _role type of account of the actor.\n      * @param _actorAddress address of the actor.\n      * @dev Only Cooperatives can call this method\n      */\n    function cooperativeAddActor(\n        bytes32 _role,\n        address _actorAddress\n    ) external {\n\n    }\n\n    /** @notice approves actor\n      * @param _allowed address of actor to assign the permission.\n      * @param _value value to be set.\n      * @return true if is success\n      */\n    function approve(address _allowed, bool _value) external returns (bool) {\n        return true;\n    }\n\n    /** @notice approves actor from cooperative\n      * @param _allower address of actor to giving the permission.\n      * @param _allowed address of actor to assign the permission.\n      * @param _value value to be set.\n      * @return true if is success\n      * @dev Only Cooperatives can call this method\n      */\n    function cooperativeApprove(address _allower, address _allowed, bool _value) external  returns (bool) {\n        return true;\n    }\n\n    /** @notice destroys an actor\n      * @dev only actor can destroy account\n      */\n    function destroyActor() external {}\n\n    /** @notice destroys an actor\n      * @param _actorAddress address of the actor.\n      * @dev Only Cooperatives can call this method\n      * @dev only actor can destroy account\n      */\n    function cooperativeDestroyActor(address _actorAddress) external {}\n\n    /** @notice Returns true if the address passed to it belongs to a cooperative account\n      * @param _cooperative The address to be checked\n      * @return true if the address passed to the function belongs to a cooperative false otherwise\n      */\n    function isCooperative(address _cooperative) external view returns (bool) {\n        return true;\n    }\n\n    /** @notice Returns true if the address passed to it belongs to a farmer account\n      * @param _farmer The address to be checked\n      * @return true if the address passed to the function belongs to a farmer false otherwise\n      */\n    function isFarmer(address _farmer) external view returns (bool) {\n        return true;\n    }\n\n    /** @notice checks if account is a certifier\n      * @param _accountAddress address of account to check\n      * @return true if is exists false if not\n      */\n    function isCertifier(address _accountAddress) external view returns (bool) {\n        return true;\n    }\n\n    /** @notice checks if account is a technician\n      * @param _accountAddress address of account to check\n      * @return true if is exists false if not\n      */\n    function isTechnician(address _accountAddress) external view returns (bool) {\n        return true;\n    }\n\n    /** @notice checks if account is a taster\n      * @param _accountAddress address of account to check\n      * @return true if is exists false if not\n      */\n    function isTaster(address _accountAddress) external view returns (bool) {\n        return true;\n    }\n\n    /** @notice checks if account is a validator\n      * @param _accountAddress address of account to check\n      * @return true if is exists false if not\n      */\n    function isValidator(address _accountAddress) external view returns (bool) {\n        return true;\n    }\n\n    /** @notice checks if account is a benefit\n      * @param _accountAddress address of account to check\n      * @return true if is exists false if not\n      */\n    function isBenefit(address _accountAddress) external view returns (bool) {\n        return true;\n    }\n\n    /** @notice checks if account is a roaster\n      * @param _accountAddress address of account to check\n      * @return true if is exists false if not\n      */\n    function isRoaster(address _accountAddress) external view returns (bool) {\n        return true;\n    }\n}",
  "sourcePath": "/Users/oscarr/Ethereum/wrapped_coffee_coin/contracts/StubActorFactory.sol",
  "compiler": {
    "name": "solc",
    "version": "0.5.9+commit.e560f70d.Emscripten.clang"
  },
  "schemaVersion": "3.0.14",
  "updatedAt": "2019-09-05T18:44:07.170Z",
  "devdoc": {
    "methods": {
      "actorExists(address)": {
        "params": {
          "_actorAddress": "address of actor to check"
        },
        "return": "true if is exists false if not"
      },
      "addActor(bytes32)": {
        "params": {
          "_role": "type of account of the actor."
        }
      },
      "approve(address,bool)": {
        "params": {
          "_allowed": "address of actor to assign the permission.",
          "_value": "value to be set."
        },
        "return": "true if is success"
      },
      "cooperativeAddActor(bytes32,address)": {
        "details": "Only Cooperatives can call this method",
        "params": {
          "_actorAddress": "address of the actor.",
          "_role": "type of account of the actor."
        }
      },
      "cooperativeApprove(address,address,bool)": {
        "details": "Only Cooperatives can call this method",
        "params": {
          "_allowed": "address of actor to assign the permission.",
          "_allower": "address of actor to giving the permission.",
          "_value": "value to be set."
        },
        "return": "true if is success"
      },
      "cooperativeDestroyActor(address)": {
        "details": "Only Cooperatives can call this methodonly actor can destroy account",
        "params": {
          "_actorAddress": "address of the actor."
        }
      },
      "destroyActor()": {
        "details": "only actor can destroy account"
      },
      "getAccountType(address)": {
        "params": {
          "_owner": "address of the owner."
        },
        "return": "returns a bytes32 with the type of account or empty if there is no account"
      },
      "getSenderRole()": {
        "return": "returns a bytes32 with the type of account or empty if there is no account"
      },
      "isAllowed(address,address)": {
        "params": {
          "_allowed": "address of the actor to check if has permission.",
          "_allower": "address of the allower."
        },
        "return": "returns true if _allowed has permission, false otherwise."
      },
      "isBenefit(address)": {
        "params": {
          "_accountAddress": "address of account to check"
        },
        "return": "true if is exists false if not"
      },
      "isCertifier(address)": {
        "params": {
          "_accountAddress": "address of account to check"
        },
        "return": "true if is exists false if not"
      },
      "isCooperative(address)": {
        "params": {
          "_cooperative": "The address to be checked"
        },
        "return": "true if the address passed to the function belongs to a cooperative false otherwise"
      },
      "isFarmer(address)": {
        "params": {
          "_farmer": "The address to be checked"
        },
        "return": "true if the address passed to the function belongs to a farmer false otherwise"
      },
      "isRoaster(address)": {
        "params": {
          "_accountAddress": "address of account to check"
        },
        "return": "true if is exists false if not"
      },
      "isTaster(address)": {
        "params": {
          "_accountAddress": "address of account to check"
        },
        "return": "true if is exists false if not"
      },
      "isTechnician(address)": {
        "params": {
          "_accountAddress": "address of account to check"
        },
        "return": "true if is exists false if not"
      },
      "isValidator(address)": {
        "params": {
          "_accountAddress": "address of account to check"
        },
        "return": "true if is exists false if not"
      }
    }
  },
  "userdoc": {
    "methods": {
      "actorExists(address)": {
        "notice": "checks if an actor exists"
      },
      "addActor(bytes32)": {
        "notice": "creates a new actor from sender"
      },
      "approve(address,bool)": {
        "notice": "approves actor"
      },
      "cooperativeAddActor(bytes32,address)": {
        "notice": "Cooperative creates new actor"
      },
      "cooperativeApprove(address,address,bool)": {
        "notice": "approves actor from cooperative"
      },
      "cooperativeDestroyActor(address)": {
        "notice": "destroys an actor"
      },
      "destroyActor()": {
        "notice": "destroys an actor"
      },
      "getAccountType(address)": {
        "notice": "Gets the type of the account."
      },
      "getSenderRole()": {
        "notice": "Gets the type of the sender account."
      },
      "isAllowed(address,address)": {
        "notice": "Checks if a user has permission from another user."
      },
      "isBenefit(address)": {
        "notice": "checks if account is a benefit"
      },
      "isCertifier(address)": {
        "notice": "checks if account is a certifier"
      },
      "isCooperative(address)": {
        "notice": "Returns true if the address passed to it belongs to a cooperative account"
      },
      "isFarmer(address)": {
        "notice": "Returns true if the address passed to it belongs to a farmer account"
      },
      "isRoaster(address)": {
        "notice": "checks if account is a roaster"
      },
      "isTaster(address)": {
        "notice": "checks if account is a taster"
      },
      "isTechnician(address)": {
        "notice": "checks if account is a technician"
      },
      "isValidator(address)": {
        "notice": "checks if account is a validator"
      }
    }
  }
}